{
  "contractName": "FinalizableMock",
  "abi": [
    {
      "constant": false,
      "inputs": [],
      "name": "finalize",
      "outputs": [],
      "payable": false,
      "stateMutability": "nonpayable",
      "type": "function"
    },
    {
      "constant": false,
      "inputs": [],
      "name": "renounceOwnership",
      "outputs": [],
      "payable": false,
      "stateMutability": "nonpayable",
      "type": "function"
    },
    {
      "constant": true,
      "inputs": [],
      "name": "isFinalized",
      "outputs": [
        {
          "name": "",
          "type": "bool"
        }
      ],
      "payable": false,
      "stateMutability": "view",
      "type": "function"
    },
    {
      "constant": true,
      "inputs": [],
      "name": "owner",
      "outputs": [
        {
          "name": "",
          "type": "address"
        }
      ],
      "payable": false,
      "stateMutability": "view",
      "type": "function"
    },
    {
      "constant": false,
      "inputs": [
        {
          "name": "_newOwner",
          "type": "address"
        }
      ],
      "name": "transferOwnership",
      "outputs": [],
      "payable": false,
      "stateMutability": "nonpayable",
      "type": "function"
    },
    {
      "anonymous": false,
      "inputs": [],
      "name": "Finalized",
      "type": "event"
    },
    {
      "anonymous": false,
      "inputs": [
        {
          "indexed": true,
          "name": "previousOwner",
          "type": "address"
        }
      ],
      "name": "OwnershipRenounced",
      "type": "event"
    },
    {
      "anonymous": false,
      "inputs": [
        {
          "indexed": true,
          "name": "previousOwner",
          "type": "address"
        },
        {
          "indexed": true,
          "name": "newOwner",
          "type": "address"
        }
      ],
      "name": "OwnershipTransferred",
      "type": "event"
    },
    {
      "constant": false,
      "inputs": [],
      "name": "finalized",
      "outputs": [],
      "payable": false,
      "stateMutability": "nonpayable",
      "type": "function"
    },
    {
      "constant": false,
      "inputs": [],
      "name": "notFinalized",
      "outputs": [],
      "payable": false,
      "stateMutability": "nonpayable",
      "type": "function"
    }
  ],
  "bytecode": "0x608060405260008054600160a860020a03191633179055610562806100256000396000f3006080604052600436106100825763ffffffff7c010000000000000000000000000000000000000000000000000000000060003504166332c669c481146100875780634bb278f31461009e578063715018a6146100b35780638d4e4083146100c85780638da5cb5b146100f1578063b3f05b971461012f578063f2fde38b14610144575b600080fd5b34801561009357600080fd5b5061009c610172565b005b3480156100aa57600080fd5b5061009c6101fe565b3480156100bf57600080fd5b5061009c610314565b3480156100d457600080fd5b506100dd61039a565b604080519115158252519081900360200190f35b3480156100fd57600080fd5b506101066103bb565b6040805173ffffffffffffffffffffffffffffffffffffffff9092168252519081900360200190f35b34801561013b57600080fd5b5061009c6103d7565b34801561015057600080fd5b5061009c73ffffffffffffffffffffffffffffffffffffffff60043516610462565b60005474010000000000000000000000000000000000000000900460ff16156101fc57604080517f08c379a000000000000000000000000000000000000000000000000000000000815260206004820152601b60248201527f436f6e747261637420616c72656164792066696e616c697a65642e0000000000604482015290519081900360640190fd5b565b60005473ffffffffffffffffffffffffffffffffffffffff16331461022257600080fd5b60005474010000000000000000000000000000000000000000900460ff16156102ac57604080517f08c379a000000000000000000000000000000000000000000000000000000000815260206004820152601b60248201527f436f6e747261637420616c72656164792066696e616c697a65642e0000000000604482015290519081900360640190fd5b6102b46101fc565b6040517f6823b073d48d6e3a7d385eeb601452d680e74bb46afe3255a7d778f3a9b1768190600090a16000805474ff0000000000000000000000000000000000000000191674010000000000000000000000000000000000000000179055565b60005473ffffffffffffffffffffffffffffffffffffffff16331461033857600080fd5b6000805460405173ffffffffffffffffffffffffffffffffffffffff909116917ff8df31144d9c2f0f6b59d69b8b98abd5459d07f2742c4df920b25aae33c6482091a26000805473ffffffffffffffffffffffffffffffffffffffff19169055565b60005474010000000000000000000000000000000000000000900460ff1681565b60005473ffffffffffffffffffffffffffffffffffffffff1681565b60005474010000000000000000000000000000000000000000900460ff1615156101fc57604080517f08c379a000000000000000000000000000000000000000000000000000000000815260206004820152601760248201527f436f6e7472616374206e6f742066696e616c697a65642e000000000000000000604482015290519081900360640190fd5b60005473ffffffffffffffffffffffffffffffffffffffff16331461048657600080fd5b61048f81610492565b50565b73ffffffffffffffffffffffffffffffffffffffff811615156104b457600080fd5b6000805460405173ffffffffffffffffffffffffffffffffffffffff808516939216917f8be0079c531659141344cd1fd0a4f28419497f9722a3daafe3b4186f6b6457e091a36000805473ffffffffffffffffffffffffffffffffffffffff191673ffffffffffffffffffffffffffffffffffffffff929092169190911790555600a165627a7a7230582050bca602e5c293c8829f4b3a62c5386ae2bcdebcba58c61bc332b2985a8c2aa80029",
  "source": "pragma solidity 0.4.24;\n\nimport \"../lifecycle/Finalizable.sol\";\n\n\n/// @dev mock class using TokenPullPayment\ncontract FinalizableMock is Finalizable {\n\n  function finalized() public onlyFinalized {\n    // noop\n  }\n\n  function notFinalized() public onlyNotFinalized {\n    // noop\n  }\n\n}\n",
  "sourcePath": "/Users/krebernisak/Documents/workspace/work/runningbeta/weinorth/tolar/contracts/mocks/FinalizableMock.sol",
  "compiler": {
    "name": "solc",
    "version": "0.4.24+commit.e67f0147.Emscripten.clang"
  },
  "schemaVersion": "2.0.1",
  "updatedAt": "2018-09-06T19:26:20.547Z"
}