{
  "contractName": "Finalizable",
  "abi": [
    {
      "constant": false,
      "inputs": [],
      "name": "renounceOwnership",
      "outputs": [],
      "payable": false,
      "stateMutability": "nonpayable",
      "type": "function"
    },
    {
      "constant": true,
      "inputs": [],
      "name": "isFinalized",
      "outputs": [
        {
          "name": "",
          "type": "bool"
        }
      ],
      "payable": false,
      "stateMutability": "view",
      "type": "function"
    },
    {
      "constant": true,
      "inputs": [],
      "name": "owner",
      "outputs": [
        {
          "name": "",
          "type": "address"
        }
      ],
      "payable": false,
      "stateMutability": "view",
      "type": "function"
    },
    {
      "constant": false,
      "inputs": [
        {
          "name": "_newOwner",
          "type": "address"
        }
      ],
      "name": "transferOwnership",
      "outputs": [],
      "payable": false,
      "stateMutability": "nonpayable",
      "type": "function"
    },
    {
      "anonymous": false,
      "inputs": [],
      "name": "Finalized",
      "type": "event"
    },
    {
      "anonymous": false,
      "inputs": [
        {
          "indexed": true,
          "name": "previousOwner",
          "type": "address"
        }
      ],
      "name": "OwnershipRenounced",
      "type": "event"
    },
    {
      "anonymous": false,
      "inputs": [
        {
          "indexed": true,
          "name": "previousOwner",
          "type": "address"
        },
        {
          "indexed": true,
          "name": "newOwner",
          "type": "address"
        }
      ],
      "name": "OwnershipTransferred",
      "type": "event"
    },
    {
      "constant": false,
      "inputs": [],
      "name": "finalize",
      "outputs": [],
      "payable": false,
      "stateMutability": "nonpayable",
      "type": "function"
    }
  ],
  "bytecode": "0x608060405260008054600160a860020a0319163317905561040d806100256000396000f30060806040526004361061006c5763ffffffff7c01000000000000000000000000000000000000000000000000000000006000350416634bb278f38114610071578063715018a6146100885780638d4e40831461009d5780638da5cb5b146100c6578063f2fde38b14610104575b600080fd5b34801561007d57600080fd5b50610086610132565b005b34801561009457600080fd5b50610086610248565b3480156100a957600080fd5b506100b26102ce565b604080519115158252519081900360200190f35b3480156100d257600080fd5b506100db6102ef565b6040805173ffffffffffffffffffffffffffffffffffffffff9092168252519081900360200190f35b34801561011057600080fd5b5061008673ffffffffffffffffffffffffffffffffffffffff6004351661030b565b60005473ffffffffffffffffffffffffffffffffffffffff16331461015657600080fd5b60005474010000000000000000000000000000000000000000900460ff16156101e057604080517f08c379a000000000000000000000000000000000000000000000000000000000815260206004820152601b60248201527f436f6e747261637420616c72656164792066696e616c697a65642e0000000000604482015290519081900360640190fd5b6101e861033b565b6040517f6823b073d48d6e3a7d385eeb601452d680e74bb46afe3255a7d778f3a9b1768190600090a16000805474ff0000000000000000000000000000000000000000191674010000000000000000000000000000000000000000179055565b60005473ffffffffffffffffffffffffffffffffffffffff16331461026c57600080fd5b6000805460405173ffffffffffffffffffffffffffffffffffffffff909116917ff8df31144d9c2f0f6b59d69b8b98abd5459d07f2742c4df920b25aae33c6482091a26000805473ffffffffffffffffffffffffffffffffffffffff19169055565b60005474010000000000000000000000000000000000000000900460ff1681565b60005473ffffffffffffffffffffffffffffffffffffffff1681565b60005473ffffffffffffffffffffffffffffffffffffffff16331461032f57600080fd5b6103388161033d565b50565b565b73ffffffffffffffffffffffffffffffffffffffff8116151561035f57600080fd5b6000805460405173ffffffffffffffffffffffffffffffffffffffff808516939216917f8be0079c531659141344cd1fd0a4f28419497f9722a3daafe3b4186f6b6457e091a36000805473ffffffffffffffffffffffffffffffffffffffff191673ffffffffffffffffffffffffffffffffffffffff929092169190911790555600a165627a7a72305820d81cc09545bb9557f27851dc4e758611fc3ce203c1be957c35063b957af873e60029",
  "source": "pragma solidity 0.4.24;\n\nimport \"openzeppelin-solidity/contracts/math/SafeMath.sol\";\nimport \"openzeppelin-solidity/contracts/ownership/Ownable.sol\";\n\n\n/**\n * @title Finalizable contract\n * @dev Lifecycle extension where an owner can do extra work after finishing.\n */\ncontract Finalizable is Ownable {\n  using SafeMath for uint256;\n\n  /// @dev Throws if called before the contract is finalized.\n  modifier onlyFinalized() {\n    require(isFinalized, \"Contract not finalized.\");\n    _;\n  }\n\n  /// @dev Throws if called after the contract is finalized.\n  modifier onlyNotFinalized() {\n    require(!isFinalized, \"Contract already finalized.\");\n    _;\n  }\n\n  bool public isFinalized = false;\n\n  event Finalized();\n\n  /**\n   * @dev Called by owner to do some extra finalization\n   * work. Calls the contract's finalization function.\n   */\n  function finalize() public onlyOwner onlyNotFinalized {\n    finalization();\n    emit Finalized();\n\n    isFinalized = true;\n  }\n\n  /**\n   * @dev Can be overridden to add finalization logic. The overriding function\n   * should call super.finalization() to ensure the chain of finalization is\n   * executed entirely.\n   */\n  function finalization() internal {\n    // override\n  }\n\n}\n",
  "sourcePath": "/Users/krebernisak/Documents/workspace/work/runningbeta/weinorth/tolar/contracts/lifecycle/Finalizable.sol",
  "compiler": {
    "name": "solc",
    "version": "0.4.24+commit.e67f0147.Emscripten.clang"
  },
  "schemaVersion": "2.0.1",
  "updatedAt": "2018-09-12T13:47:04.829Z"
}