{
  "contractName": "SafeStandardTokenMock",
  "abi": [
    {
      "constant": true,
      "inputs": [],
      "name": "name",
      "outputs": [
        {
          "name": "",
          "type": "string"
        }
      ],
      "payable": false,
      "stateMutability": "view",
      "type": "function"
    },
    {
      "constant": false,
      "inputs": [
        {
          "name": "_spender",
          "type": "address"
        },
        {
          "name": "_value",
          "type": "uint256"
        }
      ],
      "name": "approve",
      "outputs": [
        {
          "name": "",
          "type": "bool"
        }
      ],
      "payable": false,
      "stateMutability": "nonpayable",
      "type": "function"
    },
    {
      "constant": true,
      "inputs": [],
      "name": "totalSupply",
      "outputs": [
        {
          "name": "",
          "type": "uint256"
        }
      ],
      "payable": false,
      "stateMutability": "view",
      "type": "function"
    },
    {
      "constant": false,
      "inputs": [
        {
          "name": "_from",
          "type": "address"
        },
        {
          "name": "_to",
          "type": "address"
        },
        {
          "name": "_value",
          "type": "uint256"
        }
      ],
      "name": "transferFrom",
      "outputs": [
        {
          "name": "",
          "type": "bool"
        }
      ],
      "payable": false,
      "stateMutability": "nonpayable",
      "type": "function"
    },
    {
      "constant": true,
      "inputs": [],
      "name": "DECIMALS",
      "outputs": [
        {
          "name": "",
          "type": "uint8"
        }
      ],
      "payable": false,
      "stateMutability": "view",
      "type": "function"
    },
    {
      "constant": true,
      "inputs": [],
      "name": "INITIAL_SUPPLY",
      "outputs": [
        {
          "name": "",
          "type": "uint256"
        }
      ],
      "payable": false,
      "stateMutability": "view",
      "type": "function"
    },
    {
      "constant": true,
      "inputs": [],
      "name": "decimals",
      "outputs": [
        {
          "name": "",
          "type": "uint8"
        }
      ],
      "payable": false,
      "stateMutability": "view",
      "type": "function"
    },
    {
      "constant": false,
      "inputs": [
        {
          "name": "_spender",
          "type": "address"
        },
        {
          "name": "_subtractedValue",
          "type": "uint256"
        }
      ],
      "name": "decreaseApproval",
      "outputs": [
        {
          "name": "",
          "type": "bool"
        }
      ],
      "payable": false,
      "stateMutability": "nonpayable",
      "type": "function"
    },
    {
      "constant": true,
      "inputs": [
        {
          "name": "_owner",
          "type": "address"
        }
      ],
      "name": "balanceOf",
      "outputs": [
        {
          "name": "",
          "type": "uint256"
        }
      ],
      "payable": false,
      "stateMutability": "view",
      "type": "function"
    },
    {
      "constant": true,
      "inputs": [],
      "name": "symbol",
      "outputs": [
        {
          "name": "",
          "type": "string"
        }
      ],
      "payable": false,
      "stateMutability": "view",
      "type": "function"
    },
    {
      "constant": true,
      "inputs": [],
      "name": "NAME",
      "outputs": [
        {
          "name": "",
          "type": "string"
        }
      ],
      "payable": false,
      "stateMutability": "view",
      "type": "function"
    },
    {
      "constant": false,
      "inputs": [
        {
          "name": "_to",
          "type": "address"
        },
        {
          "name": "_value",
          "type": "uint256"
        }
      ],
      "name": "transfer",
      "outputs": [
        {
          "name": "",
          "type": "bool"
        }
      ],
      "payable": false,
      "stateMutability": "nonpayable",
      "type": "function"
    },
    {
      "constant": false,
      "inputs": [
        {
          "name": "_spender",
          "type": "address"
        },
        {
          "name": "_addedValue",
          "type": "uint256"
        }
      ],
      "name": "increaseApproval",
      "outputs": [
        {
          "name": "",
          "type": "bool"
        }
      ],
      "payable": false,
      "stateMutability": "nonpayable",
      "type": "function"
    },
    {
      "constant": true,
      "inputs": [
        {
          "name": "_owner",
          "type": "address"
        },
        {
          "name": "_spender",
          "type": "address"
        }
      ],
      "name": "allowance",
      "outputs": [
        {
          "name": "",
          "type": "uint256"
        }
      ],
      "payable": false,
      "stateMutability": "view",
      "type": "function"
    },
    {
      "constant": true,
      "inputs": [],
      "name": "SYMBOL",
      "outputs": [
        {
          "name": "",
          "type": "string"
        }
      ],
      "payable": false,
      "stateMutability": "view",
      "type": "function"
    },
    {
      "inputs": [],
      "payable": false,
      "stateMutability": "nonpayable",
      "type": "constructor"
    },
    {
      "anonymous": false,
      "inputs": [
        {
          "indexed": true,
          "name": "owner",
          "type": "address"
        },
        {
          "indexed": true,
          "name": "spender",
          "type": "address"
        },
        {
          "indexed": false,
          "name": "value",
          "type": "uint256"
        }
      ],
      "name": "Approval",
      "type": "event"
    },
    {
      "anonymous": false,
      "inputs": [
        {
          "indexed": true,
          "name": "from",
          "type": "address"
        },
        {
          "indexed": true,
          "name": "to",
          "type": "address"
        },
        {
          "indexed": false,
          "name": "value",
          "type": "uint256"
        }
      ],
      "name": "Transfer",
      "type": "event"
    }
  ],
  "bytecode": "0x608060405234801561001057600080fd5b50604080518082018252600d81527f4578616d706c6520546f6b656e0000000000000000000000000000000000000060208083019182528351808501909452600384527f544f4b000000000000000000000000000000000000000000000000000000000090840152815191929160129161008d9160009190610118565b5081516100a1906001906020850190610118565b506002805460ff191660ff9290921691909117905550506b033b2e3c9fd0803ce80000006004819055336000818152600360209081526040808320859055805194855251929391927fddf252ad1be2c89b69c2b068fc378daa952ba7f163c4a11628f55a4df523b3ef9281900390910190a36101b3565b828054600181600116156101000203166002900490600052602060002090601f016020900481019282601f1061015957805160ff1916838001178555610186565b82800160010185558215610186579182015b8281111561018657825182559160200191906001019061016b565b50610192929150610196565b5090565b6101b091905b80821115610192576000815560010161019c565b90565b610af9806101c26000396000f3006080604052600436106100da5763ffffffff7c010000000000000000000000000000000000000000000000000000000060003504166306fdde0381146100df578063095ea7b31461016957806318160ddd146101a157806323b872dd146101c85780632e0f2625146101f25780632ff2e9dc1461021d578063313ce56714610232578063661884631461024757806370a082311461026b57806395d89b411461028c578063a3f4df7e146102a1578063a9059cbb146102b6578063d73dd623146102da578063dd62ed3e146102fe578063f76f8d7814610325575b600080fd5b3480156100eb57600080fd5b506100f461033a565b6040805160208082528351818301528351919283929083019185019080838360005b8381101561012e578181015183820152602001610116565b50505050905090810190601f16801561015b5780820380516001836020036101000a031916815260200191505b509250505060405180910390f35b34801561017557600080fd5b5061018d600160a060020a03600435166024356103c8565b604080519115158252519081900360200190f35b3480156101ad57600080fd5b506101b661042e565b60408051918252519081900360200190f35b3480156101d457600080fd5b5061018d600160a060020a0360043581169060243516604435610434565b3480156101fe57600080fd5b506102076104e9565b6040805160ff9092168252519081900360200190f35b34801561022957600080fd5b506101b66104ee565b34801561023e57600080fd5b506102076104fe565b34801561025357600080fd5b5061018d600160a060020a0360043516602435610507565b34801561027757600080fd5b506101b6600160a060020a03600435166105f6565b34801561029857600080fd5b506100f4610611565b3480156102ad57600080fd5b506100f461066b565b3480156102c257600080fd5b5061018d600160a060020a03600435166024356106a2565b3480156102e657600080fd5b5061018d600160a060020a0360043516602435610755565b34801561030a57600080fd5b506101b6600160a060020a03600435811690602435166107ee565b34801561033157600080fd5b506100f4610819565b6000805460408051602060026001851615610100026000190190941693909304601f810184900484028201840190925281815292918301828280156103c05780601f10610395576101008083540402835291602001916103c0565b820191906000526020600020905b8154815290600101906020018083116103a357829003601f168201915b505050505081565b336000818152600560209081526040808320600160a060020a038716808552908352818420869055815186815291519394909390927f8c5be1e5ebec7d5bd14f71427d1e84f3dd0314c0f7b2291e5b200ac8c7c3b925928290030190a350600192915050565b60045490565b600082600160a060020a0381163014156104d557604080517f08c379a000000000000000000000000000000000000000000000000000000000815260206004820152603b60248201527f5472616e73666572696e6720746f6b656e7320746f207468697320636f6e747260448201527f6163742061646472657373206973206e6f7420616c6c6f7765642e0000000000606482015290519081900360840190fd5b6104e0858585610850565b95945050505050565b601281565b6b033b2e3c9fd0803ce800000081565b60025460ff1681565b336000908152600560209081526040808320600160a060020a038616845290915281205480831061055b57336000908152600560209081526040808320600160a060020a0388168452909152812055610590565b61056b818463ffffffff6109c716565b336000908152600560209081526040808320600160a060020a03891684529091529020555b336000818152600560209081526040808320600160a060020a0389168085529083529281902054815190815290519293927f8c5be1e5ebec7d5bd14f71427d1e84f3dd0314c0f7b2291e5b200ac8c7c3b925929181900390910190a35060019392505050565b600160a060020a031660009081526003602052604090205490565b60018054604080516020600284861615610100026000190190941693909304601f810184900484028201840190925281815292918301828280156103c05780601f10610395576101008083540402835291602001916103c0565b60408051808201909152600d81527f4578616d706c6520546f6b656e00000000000000000000000000000000000000602082015281565b600082600160a060020a03811630141561074357604080517f08c379a000000000000000000000000000000000000000000000000000000000815260206004820152603b60248201527f5472616e73666572696e6720746f6b656e7320746f207468697320636f6e747260448201527f6163742061646472657373206973206e6f7420616c6c6f7765642e0000000000606482015290519081900360840190fd5b61074d84846109d9565b949350505050565b336000908152600560209081526040808320600160a060020a0386168452909152812054610789908363ffffffff610aba16565b336000818152600560209081526040808320600160a060020a0389168085529083529281902085905580519485525191937f8c5be1e5ebec7d5bd14f71427d1e84f3dd0314c0f7b2291e5b200ac8c7c3b925929081900390910190a350600192915050565b600160a060020a03918216600090815260056020908152604080832093909416825291909152205490565b60408051808201909152600381527f544f4b0000000000000000000000000000000000000000000000000000000000602082015281565b600160a060020a03831660009081526003602052604081205482111561087557600080fd5b600160a060020a03841660009081526005602090815260408083203384529091529020548211156108a557600080fd5b600160a060020a03831615156108ba57600080fd5b600160a060020a0384166000908152600360205260409020546108e3908363ffffffff6109c716565b600160a060020a038086166000908152600360205260408082209390935590851681522054610918908363ffffffff610aba16565b600160a060020a03808516600090815260036020908152604080832094909455918716815260058252828120338252909152205461095c908363ffffffff6109c716565b600160a060020a03808616600081815260056020908152604080832033845282529182902094909455805186815290519287169391927fddf252ad1be2c89b69c2b068fc378daa952ba7f163c4a11628f55a4df523b3ef929181900390910190a35060019392505050565b6000828211156109d357fe5b50900390565b336000908152600360205260408120548211156109f557600080fd5b600160a060020a0383161515610a0a57600080fd5b33600090815260036020526040902054610a2a908363ffffffff6109c716565b3360009081526003602052604080822092909255600160a060020a03851681522054610a5c908363ffffffff610aba16565b600160a060020a0384166000818152600360209081526040918290209390935580518581529051919233927fddf252ad1be2c89b69c2b068fc378daa952ba7f163c4a11628f55a4df523b3ef9281900390910190a350600192915050565b81810182811015610ac757fe5b929150505600a165627a7a72305820f7e9e9c9dc2f01291a9423036e0507ad034dea61e895a66584d7d808dda03b180029",
  "source": "pragma solidity 0.4.24;\n\nimport \"openzeppelin-solidity/contracts/token/ERC20/DetailedERC20.sol\";\nimport \"../token/ERC20/SafeStandardToken.sol\";\n\n\n/**\n * @title SafeStandardToken\n * @dev ERC20 Example Token (TOK)\n *\n * TOK Tokens are divisible by 1e18 (1 000 000 000 000 000 000) base.\n *\n * TOK are displayed using 18 decimal places of precision.\n *\n * 1 TOK is equivalent to:\n *   1 000 000 000 000 000 000 == 1 * 10**18 == 1e18\n *\n * 1 Billion TOK (total supply) is equivalent to:\n *   1000000000 * 10**18 == 1e27\n *\n * @notice All tokens are pre-assigned to the creator. Note they can later distribute these\n * tokens as they wish using `transfer` and other `StandardToken` functions.\n */\ncontract SafeStandardTokenMock is DetailedERC20, SafeStandardToken {\n  string public constant NAME = \"Example Token\";\n  string public constant SYMBOL = \"TOK\";\n  uint8 public constant DECIMALS = 18;\n\n  uint256 public constant INITIAL_SUPPLY = 1000000000 * (10 ** uint256(DECIMALS));\n\n  /// @dev Constructor that gives msg.sender all of existing tokens.\n  constructor() public DetailedERC20(NAME, SYMBOL, DECIMALS) {\n    totalSupply_ = INITIAL_SUPPLY;\n    balances[msg.sender] = INITIAL_SUPPLY;\n    emit Transfer(address(0), msg.sender, INITIAL_SUPPLY);\n  }\n}\n",
  "sourcePath": "/Users/krebernisak/Documents/workspace/work/runningbeta/weinorth/tolar/contracts/mocks/SafeStandardTokenMock.sol",
  "compiler": {
    "name": "solc",
    "version": "0.4.24+commit.e67f0147.Emscripten.clang"
  },
  "schemaVersion": "2.0.1",
  "updatedAt": "2018-09-06T19:26:20.516Z"
}