{
  "contractName": "TokenDistributor",
  "abi": [
    {
      "constant": true,
      "inputs": [],
      "name": "bonusEscrow",
      "outputs": [
        {
          "name": "",
          "type": "address"
        }
      ],
      "payable": false,
      "stateMutability": "view",
      "type": "function"
    },
    {
      "constant": true,
      "inputs": [],
      "name": "rate",
      "outputs": [
        {
          "name": "",
          "type": "uint256"
        }
      ],
      "payable": false,
      "stateMutability": "view",
      "type": "function"
    },
    {
      "constant": true,
      "inputs": [],
      "name": "cap",
      "outputs": [
        {
          "name": "",
          "type": "uint256"
        }
      ],
      "payable": false,
      "stateMutability": "view",
      "type": "function"
    },
    {
      "constant": true,
      "inputs": [],
      "name": "weiRaised",
      "outputs": [
        {
          "name": "",
          "type": "uint256"
        }
      ],
      "payable": false,
      "stateMutability": "view",
      "type": "function"
    },
    {
      "constant": true,
      "inputs": [],
      "name": "withdrawTime",
      "outputs": [
        {
          "name": "",
          "type": "uint256"
        }
      ],
      "payable": false,
      "stateMutability": "view",
      "type": "function"
    },
    {
      "constant": true,
      "inputs": [],
      "name": "closingTime",
      "outputs": [
        {
          "name": "",
          "type": "uint256"
        }
      ],
      "payable": false,
      "stateMutability": "view",
      "type": "function"
    },
    {
      "constant": false,
      "inputs": [],
      "name": "finalize",
      "outputs": [],
      "payable": false,
      "stateMutability": "nonpayable",
      "type": "function"
    },
    {
      "constant": true,
      "inputs": [],
      "name": "wallet",
      "outputs": [
        {
          "name": "",
          "type": "address"
        }
      ],
      "payable": false,
      "stateMutability": "view",
      "type": "function"
    },
    {
      "constant": true,
      "inputs": [],
      "name": "timelockFactory",
      "outputs": [
        {
          "name": "",
          "type": "address"
        }
      ],
      "payable": false,
      "stateMutability": "view",
      "type": "function"
    },
    {
      "constant": false,
      "inputs": [],
      "name": "renounceOwnership",
      "outputs": [],
      "payable": false,
      "stateMutability": "nonpayable",
      "type": "function"
    },
    {
      "constant": true,
      "inputs": [],
      "name": "benefactor",
      "outputs": [
        {
          "name": "",
          "type": "address"
        }
      ],
      "payable": false,
      "stateMutability": "view",
      "type": "function"
    },
    {
      "constant": true,
      "inputs": [],
      "name": "isFinalized",
      "outputs": [
        {
          "name": "",
          "type": "bool"
        }
      ],
      "payable": false,
      "stateMutability": "view",
      "type": "function"
    },
    {
      "constant": true,
      "inputs": [],
      "name": "owner",
      "outputs": [
        {
          "name": "",
          "type": "address"
        }
      ],
      "payable": false,
      "stateMutability": "view",
      "type": "function"
    },
    {
      "constant": true,
      "inputs": [],
      "name": "crowdsale",
      "outputs": [
        {
          "name": "",
          "type": "address"
        }
      ],
      "payable": false,
      "stateMutability": "view",
      "type": "function"
    },
    {
      "constant": false,
      "inputs": [],
      "name": "reclaimEther",
      "outputs": [],
      "payable": false,
      "stateMutability": "nonpayable",
      "type": "function"
    },
    {
      "constant": true,
      "inputs": [],
      "name": "openingTime",
      "outputs": [
        {
          "name": "",
          "type": "uint256"
        }
      ],
      "payable": false,
      "stateMutability": "view",
      "type": "function"
    },
    {
      "constant": true,
      "inputs": [],
      "name": "presaleEscrow",
      "outputs": [
        {
          "name": "",
          "type": "address"
        }
      ],
      "payable": false,
      "stateMutability": "view",
      "type": "function"
    },
    {
      "constant": false,
      "inputs": [
        {
          "name": "_newOwner",
          "type": "address"
        }
      ],
      "name": "transferOwnership",
      "outputs": [],
      "payable": false,
      "stateMutability": "nonpayable",
      "type": "function"
    },
    {
      "constant": true,
      "inputs": [],
      "name": "vestingFactory",
      "outputs": [
        {
          "name": "",
          "type": "address"
        }
      ],
      "payable": false,
      "stateMutability": "view",
      "type": "function"
    },
    {
      "constant": true,
      "inputs": [],
      "name": "token",
      "outputs": [
        {
          "name": "",
          "type": "address"
        }
      ],
      "payable": false,
      "stateMutability": "view",
      "type": "function"
    },
    {
      "inputs": [
        {
          "name": "_benefactor",
          "type": "address"
        },
        {
          "name": "_rate",
          "type": "uint256"
        },
        {
          "name": "_wallet",
          "type": "address"
        },
        {
          "name": "_token",
          "type": "address"
        },
        {
          "name": "_cap",
          "type": "uint256"
        },
        {
          "name": "_openingTime",
          "type": "uint256"
        },
        {
          "name": "_closingTime",
          "type": "uint256"
        },
        {
          "name": "_withdrawTime",
          "type": "uint256"
        },
        {
          "name": "_bonusTime",
          "type": "uint256"
        }
      ],
      "payable": false,
      "stateMutability": "nonpayable",
      "type": "constructor"
    },
    {
      "payable": false,
      "stateMutability": "nonpayable",
      "type": "fallback"
    },
    {
      "anonymous": false,
      "inputs": [
        {
          "indexed": false,
          "name": "sender",
          "type": "address"
        },
        {
          "indexed": false,
          "name": "instantiation",
          "type": "address"
        }
      ],
      "name": "ContractInstantiation",
      "type": "event"
    },
    {
      "anonymous": false,
      "inputs": [
        {
          "indexed": false,
          "name": "sender",
          "type": "address"
        },
        {
          "indexed": false,
          "name": "instantiation",
          "type": "address"
        },
        {
          "indexed": false,
          "name": "allowance",
          "type": "uint256"
        }
      ],
      "name": "CrowdsaleInstantiated",
      "type": "event"
    },
    {
      "anonymous": false,
      "inputs": [],
      "name": "Finalized",
      "type": "event"
    },
    {
      "anonymous": false,
      "inputs": [
        {
          "indexed": true,
          "name": "previousOwner",
          "type": "address"
        }
      ],
      "name": "OwnershipRenounced",
      "type": "event"
    },
    {
      "anonymous": false,
      "inputs": [
        {
          "indexed": true,
          "name": "previousOwner",
          "type": "address"
        },
        {
          "indexed": true,
          "name": "newOwner",
          "type": "address"
        }
      ],
      "name": "OwnershipTransferred",
      "type": "event"
    },
    {
      "constant": false,
      "inputs": [
        {
          "name": "_beneficiary",
          "type": "address"
        },
        {
          "name": "_cap",
          "type": "uint256"
        }
      ],
      "name": "setUserCap",
      "outputs": [],
      "payable": false,
      "stateMutability": "nonpayable",
      "type": "function"
    },
    {
      "constant": false,
      "inputs": [
        {
          "name": "_beneficiaries",
          "type": "address[]"
        },
        {
          "name": "_cap",
          "type": "uint256"
        }
      ],
      "name": "setGroupCap",
      "outputs": [],
      "payable": false,
      "stateMutability": "nonpayable",
      "type": "function"
    },
    {
      "constant": true,
      "inputs": [
        {
          "name": "_beneficiary",
          "type": "address"
        }
      ],
      "name": "getUserCap",
      "outputs": [
        {
          "name": "",
          "type": "uint256"
        }
      ],
      "payable": false,
      "stateMutability": "view",
      "type": "function"
    },
    {
      "constant": false,
      "inputs": [
        {
          "name": "_dest",
          "type": "address"
        },
        {
          "name": "_amount",
          "type": "uint256"
        }
      ],
      "name": "depositPresale",
      "outputs": [],
      "payable": false,
      "stateMutability": "nonpayable",
      "type": "function"
    },
    {
      "constant": false,
      "inputs": [
        {
          "name": "_dest",
          "type": "address"
        },
        {
          "name": "_amount",
          "type": "uint256"
        },
        {
          "name": "_weiAmount",
          "type": "uint256"
        }
      ],
      "name": "depositPresale",
      "outputs": [],
      "payable": false,
      "stateMutability": "nonpayable",
      "type": "function"
    },
    {
      "constant": false,
      "inputs": [
        {
          "name": "_beneficiary",
          "type": "address"
        }
      ],
      "name": "withdrawPresale",
      "outputs": [],
      "payable": false,
      "stateMutability": "nonpayable",
      "type": "function"
    },
    {
      "constant": false,
      "inputs": [
        {
          "name": "_beneficiaries",
          "type": "address[]"
        }
      ],
      "name": "withdrawPresale",
      "outputs": [],
      "payable": false,
      "stateMutability": "nonpayable",
      "type": "function"
    },
    {
      "constant": false,
      "inputs": [],
      "name": "withdrawPresale",
      "outputs": [],
      "payable": false,
      "stateMutability": "nonpayable",
      "type": "function"
    },
    {
      "constant": false,
      "inputs": [
        {
          "name": "_dest",
          "type": "address"
        },
        {
          "name": "_amount",
          "type": "uint256"
        }
      ],
      "name": "depositBonus",
      "outputs": [],
      "payable": false,
      "stateMutability": "nonpayable",
      "type": "function"
    },
    {
      "constant": false,
      "inputs": [],
      "name": "withdrawBonus",
      "outputs": [],
      "payable": false,
      "stateMutability": "nonpayable",
      "type": "function"
    },
    {
      "constant": false,
      "inputs": [
        {
          "name": "_beneficiary",
          "type": "address"
        }
      ],
      "name": "withdrawBonus",
      "outputs": [],
      "payable": false,
      "stateMutability": "nonpayable",
      "type": "function"
    },
    {
      "constant": false,
      "inputs": [
        {
          "name": "_beneficiaries",
          "type": "address[]"
        }
      ],
      "name": "withdrawBonus",
      "outputs": [],
      "payable": false,
      "stateMutability": "nonpayable",
      "type": "function"
    },
    {
      "constant": false,
      "inputs": [
        {
          "name": "_dest",
          "type": "address"
        },
        {
          "name": "_amount",
          "type": "uint256"
        },
        {
          "name": "_bonusAmount",
          "type": "uint256"
        }
      ],
      "name": "depositPresaleWithBonus",
      "outputs": [],
      "payable": false,
      "stateMutability": "nonpayable",
      "type": "function"
    },
    {
      "constant": false,
      "inputs": [
        {
          "name": "_dest",
          "type": "address"
        },
        {
          "name": "_amount",
          "type": "uint256"
        },
        {
          "name": "_weiAmount",
          "type": "uint256"
        },
        {
          "name": "_bonusAmount",
          "type": "uint256"
        }
      ],
      "name": "depositPresaleWithBonus",
      "outputs": [],
      "payable": false,
      "stateMutability": "nonpayable",
      "type": "function"
    },
    {
      "constant": false,
      "inputs": [
        {
          "name": "_timelockFactory",
          "type": "address"
        }
      ],
      "name": "setTokenTimelockFactory",
      "outputs": [],
      "payable": false,
      "stateMutability": "nonpayable",
      "type": "function"
    },
    {
      "constant": false,
      "inputs": [
        {
          "name": "_dest",
          "type": "address"
        },
        {
          "name": "_amount",
          "type": "uint256"
        },
        {
          "name": "_releaseTime",
          "type": "uint256"
        }
      ],
      "name": "depositAndLock",
      "outputs": [
        {
          "name": "tokenWallet",
          "type": "address"
        }
      ],
      "payable": false,
      "stateMutability": "nonpayable",
      "type": "function"
    },
    {
      "constant": false,
      "inputs": [
        {
          "name": "_vestingFactory",
          "type": "address"
        }
      ],
      "name": "setTokenVestingFactory",
      "outputs": [],
      "payable": false,
      "stateMutability": "nonpayable",
      "type": "function"
    },
    {
      "constant": false,
      "inputs": [
        {
          "name": "_dest",
          "type": "address"
        },
        {
          "name": "_amount",
          "type": "uint256"
        },
        {
          "name": "_start",
          "type": "uint256"
        },
        {
          "name": "_cliff",
          "type": "uint256"
        },
        {
          "name": "_duration",
          "type": "uint256"
        }
      ],
      "name": "depositAndVest",
      "outputs": [
        {
          "name": "tokenWallet",
          "type": "address"
        }
      ],
      "payable": false,
      "stateMutability": "nonpayable",
      "type": "function"
    },
    {
      "constant": false,
      "inputs": [
        {
          "name": "_beneficiary",
          "type": "address"
        }
      ],
      "name": "claimUnsold",
      "outputs": [],
      "payable": false,
      "stateMutability": "nonpayable",
      "type": "function"
    }
  ],
  "bytecode": "0x60806040526000805460a060020a60ff02191690553480156200002157600080fd5b5060405161012080620050d383398101604090815281516020830151918301516060840151608085015160a086015160c087015160e08801516101009098015160008054600160a060020a0319163317905595979495939492939192909134156200008b57600080fd5b600160a060020a03891615156200012957604080517f08c379a000000000000000000000000000000000000000000000000000000000815260206004820152602560248201527f42656e65666163746f7220616464726573732073686f756c64206e6f7420626560448201527f203078302e000000000000000000000000000000000000000000000000000000606482015290519081900360840190fd5b600088116200019957604080517f08c379a000000000000000000000000000000000000000000000000000000000815260206004820152601760248201527f526174652073686f756c64206e6f74206265203e20302e000000000000000000604482015290519081900360640190fd5b600160a060020a03871615156200023757604080517f08c379a000000000000000000000000000000000000000000000000000000000815260206004820152602160248201527f57616c6c657420616464726573732073686f756c64206e6f742062652030783060448201527f2e00000000000000000000000000000000000000000000000000000000000000606482015290519081900360840190fd5b600160a060020a0386161515620002af57604080517f08c379a000000000000000000000000000000000000000000000000000000000815260206004820181905260248201527f546f6b656e20616464726573732073686f756c64206e6f74206265203078302e604482015290519081900360640190fd5b600085116200031f57604080517f08c379a000000000000000000000000000000000000000000000000000000000815260206004820152601260248201527f4361702073686f756c64206265203e20302e0000000000000000000000000000604482015290519081900360640190fd5b428411620003b457604080517f08c379a000000000000000000000000000000000000000000000000000000000815260206004820152602560248201527f4f70656e696e672074696d652073686f756c6420626520696e2074686520667560448201527f747572652e000000000000000000000000000000000000000000000000000000606482015290519081900360840190fd5b8383116200044957604080517f08c379a000000000000000000000000000000000000000000000000000000000815260206004820152602560248201527f436c6f73696e672074696d652073686f756c64206265206166746572206f706560448201527f6e696e672e000000000000000000000000000000000000000000000000000000606482015290519081900360840190fd5b82821015620004df57604080517f08c379a000000000000000000000000000000000000000000000000000000000815260206004820152602f60248201527f5769746864726177616c732073686f756c64206f70656e20616674657220637260448201527f6f776473616c6520636c6f7365732e0000000000000000000000000000000000606482015290519081900360840190fd5b8181116200057457604080517f08c379a000000000000000000000000000000000000000000000000000000000815260206004820152603060248201527f426f6e75732074696d652073686f756c6420626520736574206166746572207760448201527f69746864726177616c73206f70656e2e00000000000000000000000000000000606482015290519081900360840190fd5b60018054600160a060020a03808c16600160a060020a03199283161790925560028a9055600380548a8416908316179055600480549289169290911691909117905560058590556006849055600783905560088290558582620005d662000698565b600160a060020a0390921682526020820152604080519182900301906000f08015801562000608573d6000803e3d6000fd5b50600b8054600160a060020a031916600160a060020a039290921691909117905585816200063562000698565b600160a060020a0390921682526020820152604080519182900301906000f08015801562000667573d6000803e3d6000fd5b50600c8054600160a060020a031916600160a060020a039290921691909117905550620006a9975050505050505050565b604051610b50806200458383390190565b613eca80620006b96000396000f3006080604052600436106200020a5763ffffffff7c01000000000000000000000000000000000000000000000000000000006000350416630ad2779881146200021a5780630d3b790114620002435780631202960f146200029b57806317711a4614620002cf5780632c4e722e14620002f35780633032236f146200031d578063355274ea146200034d5780633871bdd714620003655780634042b66f146200039257806345cb3dde14620003aa5780634b6753bc14620003c25780634bb278f314620003da578063521eb27314620003f2578063601846df146200040a57806362ef0e65146200042257806363ac0f99146200047a57806366de84ec14620004a15780636df5ee2b14620004b9578063715018a614620004d157806375048ebd14620004e95780638a81694c146200050d5780638b58c64c14620005255780638d4e408314620005495780638da5cb5b14620005755780639c1e03a0146200058d5780639f727c2714620005a5578063a31f61fc14620005bd578063a6da1e7d14620005e4578063b7a8807c146200060e578063b8b189151462000626578063baec1ced146200064a578063c3143fe51462000674578063c8b4eb6e146200069b578063e295609514620006bf578063e76e928614620006d7578063e82386881462000701578063f2fde38b1462000725578063f60826ee1462000749578063fc0c546a1462000761575b3480156200021757600080fd5b50005b3480156200022757600080fd5b5062000241600160a060020a036004351660243562000779565b005b3480156200025057600080fd5b5060408051602060048035808201358381028086018501909652808552620002419536959394602494938501929182918501908490808284375094975062000b5d9650505050505050565b348015620002a857600080fd5b50620002b362000c33565b60408051600160a060020a039092168252519081900360200190f35b348015620002dc57600080fd5b5062000241600160a060020a036004351662000c42565b3480156200030057600080fd5b506200030b62000d72565b60408051918252519081900360200190f35b3480156200032a57600080fd5b50620002b3600160a060020a036004351660243560443560643560843562000d78565b3480156200035a57600080fd5b506200030b6200120e565b3480156200037257600080fd5b5062000241600160a060020a036004351660243560443560643562001214565b3480156200039f57600080fd5b506200030b62001233565b348015620003b757600080fd5b506200030b62001239565b348015620003cf57600080fd5b506200030b6200123f565b348015620003e757600080fd5b506200024162001245565b348015620003ff57600080fd5b50620002b36200133b565b3480156200041757600080fd5b50620002b36200134a565b3480156200042f57600080fd5b50604080516020600480358082013583810280860185019096528085526200024195369593946024949385019291829185019084908082843750949750620013599650505050505050565b3480156200048757600080fd5b5062000241600160a060020a03600435166024356200142b565b348015620004ae57600080fd5b5062000241620017f2565b348015620004c657600080fd5b50620002416200186d565b348015620004de57600080fd5b5062000241620018d3565b348015620004f657600080fd5b5062000241600160a060020a036004351662001940565b3480156200051a57600080fd5b50620002b362001c38565b3480156200053257600080fd5b506200030b600160a060020a036004351662001c47565b3480156200055657600080fd5b506200056162001d4a565b604080519115158252519081900360200190f35b3480156200058257600080fd5b50620002b362001d6b565b3480156200059a57600080fd5b50620002b362001d7a565b348015620005b257600080fd5b506200024162001d89565b348015620005ca57600080fd5b506200024160246004803582810192910135903562001de0565b348015620005f157600080fd5b50620002b3600160a060020a036004351660243560443562001f04565b3480156200061b57600080fd5b506200030b6200237b565b3480156200063357600080fd5b5062000241600160a060020a036004351662002381565b3480156200065757600080fd5b5062000241600160a060020a036004351660243560443562002405565b3480156200068157600080fd5b5062000241600160a060020a036004351660243562002422565b348015620006a857600080fd5b5062000241600160a060020a03600435166200250c565b348015620006cc57600080fd5b50620002b362002574565b348015620006e457600080fd5b5062000241600160a060020a036004351660243560443562002583565b3480156200070e57600080fd5b5062000241600160a060020a03600435166200261b565b3480156200073257600080fd5b5062000241600160a060020a03600435166200274b565b3480156200075657600080fd5b50620002b36200276e565b3480156200076e57600080fd5b50620002b36200277d565b600054600160a060020a031633146200079157600080fd5b60005474010000000000000000000000000000000000000000900460ff161562000805576040805160e560020a62461bcd02815260206004820152601b60248201527f436f6e747261637420616c72656164792066696e616c697a65642e0000000000604482015290519081900360640190fd5b600160a060020a0382163014156200088d576040805160e560020a62461bcd02815260206004820152603b60248201527f5472616e73666572696e6720746f6b656e7320746f207468697320636f6e747260448201527f6163742061646472657373206973206e6f7420616c6c6f7765642e0000000000606482015290519081900360840190fd5b60048054600154604080517fdd62ed3e000000000000000000000000000000000000000000000000000000008152600160a060020a0392831694810194909452306024850152518493919092169163dd62ed3e916044808201926020929091908290030181600087803b1580156200090457600080fd5b505af115801562000919573d6000803e3d6000fd5b505050506040513d60208110156200093057600080fd5b5051101562000989576040805160e560020a62461bcd02815260206004820152601560248201527f4e6f7420656e6f75676820616c6c6f77616e63652e0000000000000000000000604482015290519081900360640190fd5b60048054600154604080517f23b872dd000000000000000000000000000000000000000000000000000000008152600160a060020a039283169481019490945230602485015260448401859052519116916323b872dd9160648083019260209291908290030181600087803b15801562000a0257600080fd5b505af115801562000a17573d6000803e3d6000fd5b505050506040513d602081101562000a2e57600080fd5b505060048054600b54604080517f095ea7b3000000000000000000000000000000000000000000000000000000008152600160a060020a0392831694810194909452602484018590525191169163095ea7b39160448083019260209291908290030181600087803b15801562000aa357600080fd5b505af115801562000ab8573d6000803e3d6000fd5b505050506040513d602081101562000acf57600080fd5b5050600b54604080517f47e7ef24000000000000000000000000000000000000000000000000000000008152600160a060020a03858116600483015260248201859052915191909216916347e7ef2491604480830192600092919082900301818387803b15801562000b4057600080fd5b505af115801562000b55573d6000803e3d6000fd5b505050505050565b60005b81518163ffffffff16101562000c2f57600c548251600160a060020a03909116906351cff8d990849063ffffffff851690811062000b9a57fe5b906020019060200201516040518263ffffffff167c01000000000000000000000000000000000000000000000000000000000281526004018082600160a060020a0316600160a060020a03168152602001915050600060405180830381600087803b15801562000c0957600080fd5b505af115801562000c1e573d6000803e3d6000fd5b50506001909201915062000b609050565b5050565b600c54600160a060020a031681565b600054600160a060020a0316331462000c5a57600080fd5b600160a060020a038116151562000ce1576040805160e560020a62461bcd02815260206004820152602260248201527f466163746f727920616464726573732073686f756c64206e6f7420626520307860448201527f302e000000000000000000000000000000000000000000000000000000000000606482015290519081900360840190fd5b600d54600160a060020a03161562000d43576040805160e560020a62461bcd02815260206004820152601c60248201527f466163746f727920616c726561647920696e6974616c697a6965642e00000000604482015290519081900360640190fd5b600d805473ffffffffffffffffffffffffffffffffffffffff1916600160a060020a0392909216919091179055565b60025481565b600080548190600160a060020a0316331462000d9357600080fd5b60005474010000000000000000000000000000000000000000900460ff161562000e07576040805160e560020a62461bcd02815260206004820152601b60248201527f436f6e747261637420616c72656164792066696e616c697a65642e0000000000604482015290519081900360640190fd5b60048054600154604080517fdd62ed3e000000000000000000000000000000000000000000000000000000008152600160a060020a0392831694810194909452306024850152518993919092169163dd62ed3e916044808201926020929091908290030181600087803b15801562000e7e57600080fd5b505af115801562000e93573d6000803e3d6000fd5b505050506040513d602081101562000eaa57600080fd5b5051101562000f03576040805160e560020a62461bcd02815260206004820152601560248201527f4e6f7420656e6f75676820616c6c6f77616e63652e0000000000000000000000604482015290519081900360640190fd5b600160a060020a038716151562000f8a576040805160e560020a62461bcd02815260206004820152602660248201527f44657374696e6174696f6e20616464726573732073686f756c64206e6f74206260448201527f65203078302e0000000000000000000000000000000000000000000000000000606482015290519081900360840190fd5b600160a060020a03871630141562001012576040805160e560020a62461bcd02815260206004820152603b60248201527f5472616e73666572696e6720746f6b656e7320746f207468697320636f6e747260448201527f6163742061646472657373206973206e6f7420616c6c6f7765642e0000000000606482015290519081900360840190fd5b60085462001027868663ffffffff6200278c16565b1015620010a4576040805160e560020a62461bcd02815260206004820152602c60248201527f546f6b656e732073686f756c6420756e6c6f636b20616674657220776974686460448201527f726177616c73206f70656e2e0000000000000000000000000000000000000000606482015290519081900360840190fd5b50600e54604080517e5f41cc000000000000000000000000000000000000000000000000000000008152600160a060020a038981166004830152602482018890526044820187905260648201869052600060848301819052925192931691625f41cc9160a48082019260209290919082900301818787803b1580156200112957600080fd5b505af11580156200113e573d6000803e3d6000fd5b505050506040513d60208110156200115557600080fd5b505160048054600154604080517f23b872dd000000000000000000000000000000000000000000000000000000008152600160a060020a03928316948101949094528185166024850152604484018b90525193955016916323b872dd916064808201926020929091908290030181600087803b158015620011d557600080fd5b505af1158015620011ea573d6000803e3d6000fd5b505050506040513d60208110156200120157600080fd5b5091979650505050505050565b60055481565b6200122184848462002583565b6200122d84826200142b565b50505050565b60095481565b60085481565b60075481565b600054600160a060020a031633146200125d57600080fd5b60005474010000000000000000000000000000000000000000900460ff1615620012d1576040805160e560020a62461bcd02815260206004820152601b60248201527f436f6e747261637420616c72656164792066696e616c697a65642e0000000000604482015290519081900360640190fd5b620012db620027a0565b6040517f6823b073d48d6e3a7d385eeb601452d680e74bb46afe3255a7d778f3a9b1768190600090a16000805474ff0000000000000000000000000000000000000000191674010000000000000000000000000000000000000000179055565b600354600160a060020a031681565b600d54600160a060020a031681565b60005b81518163ffffffff16101562000c2f57600b548251600160a060020a03909116906351cff8d990849063ffffffff85169081106200139657fe5b906020019060200201516040518263ffffffff167c01000000000000000000000000000000000000000000000000000000000281526004018082600160a060020a0316600160a060020a03168152602001915050600060405180830381600087803b1580156200140557600080fd5b505af11580156200141a573d6000803e3d6000fd5b5050600190920191506200135c9050565b600054600160a060020a031633146200144357600080fd5b60005474010000000000000000000000000000000000000000900460ff1615620014b7576040805160e560020a62461bcd02815260206004820152601b60248201527f436f6e747261637420616c72656164792066696e616c697a65642e0000000000604482015290519081900360640190fd5b600160a060020a0382163014156200153f576040805160e560020a62461bcd02815260206004820152603b60248201527f5472616e73666572696e6720746f6b656e7320746f207468697320636f6e747260448201527f6163742061646472657373206973206e6f7420616c6c6f7765642e0000000000606482015290519081900360840190fd5b60048054600154604080517fdd62ed3e000000000000000000000000000000000000000000000000000000008152600160a060020a0392831694810194909452306024850152518493919092169163dd62ed3e916044808201926020929091908290030181600087803b158015620015b657600080fd5b505af1158015620015cb573d6000803e3d6000fd5b505050506040513d6020811015620015e257600080fd5b505110156200163b576040805160e560020a62461bcd02815260206004820152601560248201527f4e6f7420656e6f75676820616c6c6f77616e63652e0000000000000000000000604482015290519081900360640190fd5b60048054600154604080517f23b872dd000000000000000000000000000000000000000000000000000000008152600160a060020a039283169481019490945230602485015260448401859052519116916323b872dd9160648083019260209291908290030181600087803b158015620016b457600080fd5b505af1158015620016c9573d6000803e3d6000fd5b505050506040513d6020811015620016e057600080fd5b505060048054600c54604080517f095ea7b3000000000000000000000000000000000000000000000000000000008152600160a060020a0392831694810194909452602484018590525191169163095ea7b39160448083019260209291908290030181600087803b1580156200175557600080fd5b505af11580156200176a573d6000803e3d6000fd5b505050506040513d60208110156200178157600080fd5b5050600c54604080517f47e7ef24000000000000000000000000000000000000000000000000000000008152600160a060020a03858116600483015260248201859052915191909216916347e7ef2491604480830192600092919082900301818387803b15801562000b4057600080fd5b600c54604080517f51cff8d90000000000000000000000000000000000000000000000000000000081523360048201529051600160a060020a03909216916351cff8d99160248082019260009290919082900301818387803b1580156200185857600080fd5b505af11580156200122d573d6000803e3d6000fd5b600b54604080517f51cff8d90000000000000000000000000000000000000000000000000000000081523360048201529051600160a060020a03909216916351cff8d99160248082019260009290919082900301818387803b1580156200185857600080fd5b600054600160a060020a03163314620018eb57600080fd5b60008054604051600160a060020a03909116917ff8df31144d9c2f0f6b59d69b8b98abd5459d07f2742c4df920b25aae33c6482091a26000805473ffffffffffffffffffffffffffffffffffffffff19169055565b600a546000908190819081908190600160a060020a03161515620019ae576040805160e560020a62461bcd02815260206004820152601660248201527f43726f776473616c65206e6f7420737461727465642e00000000000000000000604482015290519081900360640190fd5b600054600160a060020a03163314620019c657600080fd5b600854421162001a20576040805160e560020a62461bcd02815260206004820152601560248201527f5769746864726177616c73206e6f74206f70656e2e0000000000000000000000604482015290519081900360640190fd5b600a60009054906101000a9004600160a060020a0316600160a060020a031663518ab2a86040518163ffffffff167c0100000000000000000000000000000000000000000000000000000000028152600401602060405180830381600087803b15801562001a8d57600080fd5b505af115801562001aa2573d6000803e3d6000fd5b505050506040513d602081101562001ab957600080fd5b5051600a54604080517f095272aa0000000000000000000000000000000000000000000000000000000081529051929750600160a060020a039091169163095272aa916004808201926020929091908290030181600087803b15801562001b1f57600080fd5b505af115801562001b34573d6000803e3d6000fd5b505050506040513d602081101562001b4b57600080fd5b5051935062001b61858563ffffffff62002acd16565b60048054604080517f70a08231000000000000000000000000000000000000000000000000000000008152309381019390935251929550600160a060020a0316916370a08231916024808201926020929091908290030181600087803b15801562001bcb57600080fd5b505af115801562001be0573d6000803e3d6000fd5b505050506040513d602081101562001bf757600080fd5b5051915062001c0d828463ffffffff62002acd16565b9050600081111562000b555760045462000b5590600160a060020a0316878363ffffffff62002ae016565b600154600160a060020a031681565b600a54600090600160a060020a0316151562001cad576040805160e560020a62461bcd02815260206004820152601660248201527f43726f776473616c65206e6f7420737461727465642e00000000000000000000604482015290519081900360640190fd5b600a54604080517f8b58c64c000000000000000000000000000000000000000000000000000000008152600160a060020a03858116600483015291519190921691638b58c64c9160248083019260209291908290030181600087803b15801562001d1657600080fd5b505af115801562001d2b573d6000803e3d6000fd5b505050506040513d602081101562001d4257600080fd5b505192915050565b60005474010000000000000000000000000000000000000000900460ff1681565b600054600160a060020a031681565b600a54600160a060020a031681565b600054600160a060020a0316331462001da157600080fd5b60008054604051600160a060020a0390911691303180156108fc02929091818181858888f1935050505015801562001ddd573d6000803e3d6000fd5b50565b600054600160a060020a0316331462001df857600080fd5b600a54600160a060020a0316151562001e5b576040805160e560020a62461bcd02815260206004820152601660248201527f43726f776473616c65206e6f7420737461727465642e00000000000000000000604482015290519081900360640190fd5b600a54604080517fa31f61fc000000000000000000000000000000000000000000000000000000008152602481018490526004810191825260448101859052600160a060020a039092169163a31f61fc9186918691869181906064018560208602808284378201915050945050505050600060405180830381600087803b15801562001ee657600080fd5b505af115801562001efb573d6000803e3d6000fd5b50505050505050565b60008054600160a060020a0316331462001f1d57600080fd5b60005474010000000000000000000000000000000000000000900460ff161562001f91576040805160e560020a62461bcd02815260206004820152601b60248201527f436f6e747261637420616c72656164792066696e616c697a65642e0000000000604482015290519081900360640190fd5b60048054600154604080517fdd62ed3e000000000000000000000000000000000000000000000000000000008152600160a060020a0392831694810194909452306024850152518693919092169163dd62ed3e916044808201926020929091908290030181600087803b1580156200200857600080fd5b505af11580156200201d573d6000803e3d6000fd5b505050506040513d60208110156200203457600080fd5b505110156200208d576040805160e560020a62461bcd02815260206004820152601560248201527f4e6f7420656e6f75676820616c6c6f77616e63652e0000000000000000000000604482015290519081900360640190fd5b600160a060020a038416151562002114576040805160e560020a62461bcd02815260206004820152602660248201527f44657374696e6174696f6e20616464726573732073686f756c64206e6f74206260448201527f65203078302e0000000000000000000000000000000000000000000000000000606482015290519081900360840190fd5b600160a060020a0384163014156200219c576040805160e560020a62461bcd02815260206004820152603b60248201527f5472616e73666572696e6720746f6b656e7320746f207468697320636f6e747260448201527f6163742061646472657373206973206e6f7420616c6c6f7765642e0000000000606482015290519081900360840190fd5b6008548210156200221d576040805160e560020a62461bcd02815260206004820152602c60248201527f546f6b656e732073686f756c6420756e6c6f636b20616674657220776974686460448201527f726177616c73206f70656e2e0000000000000000000000000000000000000000606482015290519081900360840190fd5b600d5460048054604080517fffe5725f000000000000000000000000000000000000000000000000000000008152600160a060020a03928316938101939093528782166024840152604483018690525192169163ffe5725f916064808201926020929091908290030181600087803b1580156200229957600080fd5b505af1158015620022ae573d6000803e3d6000fd5b505050506040513d6020811015620022c557600080fd5b505160048054600154604080517f23b872dd000000000000000000000000000000000000000000000000000000008152600160a060020a03928316948101949094528185166024850152604484018890525193945016916323b872dd916064808201926020929091908290030181600087803b1580156200234557600080fd5b505af11580156200235a573d6000803e3d6000fd5b505050506040513d60208110156200237157600080fd5b5090949350505050565b60065481565b600c54604080517f51cff8d9000000000000000000000000000000000000000000000000000000008152600160a060020a038481166004830152915191909216916351cff8d991602480830192600092919082900301818387803b158015620023e957600080fd5b505af1158015620023fe573d6000803e3d6000fd5b5050505050565b62002411838362000779565b6200241d83826200142b565b505050565b600054600160a060020a031633146200243a57600080fd5b600a54600160a060020a031615156200249d576040805160e560020a62461bcd02815260206004820152601660248201527f43726f776473616c65206e6f7420737461727465642e00000000000000000000604482015290519081900360640190fd5b600a54604080517fc3143fe5000000000000000000000000000000000000000000000000000000008152600160a060020a038581166004830152602482018590529151919092169163c3143fe591604480830192600092919082900301818387803b15801562000b4057600080fd5b600b54604080517f51cff8d9000000000000000000000000000000000000000000000000000000008152600160a060020a038481166004830152915191909216916351cff8d991602480830192600092919082900301818387803b158015620023e957600080fd5b600b54600160a060020a031681565b60095462002598908263ffffffff6200278c16565b6005541015620025f2576040805160e560020a62461bcd02815260206004820152600c60248201527f43617020726561636865642e0000000000000000000000000000000000000000604482015290519081900360640190fd5b620025fe838362000779565b60095462002613908263ffffffff6200278c16565b600955505050565b600054600160a060020a031633146200263357600080fd5b600160a060020a0381161515620026ba576040805160e560020a62461bcd02815260206004820152602260248201527f466163746f727920616464726573732073686f756c64206e6f7420626520307860448201527f302e000000000000000000000000000000000000000000000000000000000000606482015290519081900360840190fd5b600e54600160a060020a0316156200271c576040805160e560020a62461bcd02815260206004820152601c60248201527f466163746f727920616c726561647920696e6974616c697a6965642e00000000604482015290519081900360640190fd5b600e805473ffffffffffffffffffffffffffffffffffffffff1916600160a060020a0392909216919091179055565b600054600160a060020a031633146200276357600080fd5b62001ddd8162002b97565b600e54600160a060020a031681565b600454600160a060020a031681565b818101828110156200279a57fe5b92915050565b6000806000620027be60095460055462002acd90919063ffffffff16565b9250670de0b6b3a7640000831015620027d7576200241d565b600254600354600454600654600754600854309750600160a060020a0394851694909316928792899290916200280c62002c15565b978852600160a060020a039687166020890152948616604080890191909152939095166060870152608086019190915260a085015260c084019290925260e0830152519081900361010001906000f0801580156200286e573d6000803e3d6000fd5b50600a805473ffffffffffffffffffffffffffffffffffffffff1916600160a060020a0392831617905560048054600154604080517fdd62ed3e00000000000000000000000000000000000000000000000000000000815291851693820193909352306024820152915192169163dd62ed3e916044808201926020929091908290030181600087803b1580156200290457600080fd5b505af115801562002919573d6000803e3d6000fd5b505050506040513d60208110156200293057600080fd5b505160048054600154604080517f23b872dd000000000000000000000000000000000000000000000000000000008152600160a060020a0392831694810194909452306024850152604484018590525193945016916323b872dd916064808201926020929091908290030181600087803b158015620029ae57600080fd5b505af1158015620029c3573d6000803e3d6000fd5b505050506040513d6020811015620029da57600080fd5b505060048054600a54604080517f095ea7b3000000000000000000000000000000000000000000000000000000008152600160a060020a0392831694810194909452602484018590525191169163095ea7b39160448083019260209291908290030181600087803b15801562002a4f57600080fd5b505af115801562002a64573d6000803e3d6000fd5b505050506040513d602081101562002a7b57600080fd5b5050600a5460408051338152600160a060020a039092166020830152818101839052517f4949745e61bc6144980b58ae8a1aee3dc2a0c75a15843eeed82b7ccf9193283c9181900360600190a1505050565b60008282111562002ada57fe5b50900390565b82600160a060020a031663a9059cbb83836040518363ffffffff167c01000000000000000000000000000000000000000000000000000000000281526004018083600160a060020a0316600160a060020a0316815260200182815260200192505050602060405180830381600087803b15801562002b5d57600080fd5b505af115801562002b72573d6000803e3d6000fd5b505050506040513d602081101562002b8957600080fd5b505115156200241d57600080fd5b600160a060020a038116151562002bad57600080fd5b60008054604051600160a060020a03808516939216917f8be0079c531659141344cd1fd0a4f28419497f9722a3daafe3b4186f6b6457e091a36000805473ffffffffffffffffffffffffffffffffffffffff1916600160a060020a0392909216919091179055565b6040516112788062002c27833901905600608060405234801561001057600080fd5b506040516101008061127883398101604090815281516020830151918301516060840151608085015160a086015160c087015160e09097015160008054600160a060020a03191633178155959794959394929391929185908590859085908c908c908c90831161007f57600080fd5b600160a060020a038216151561009457600080fd5b600160a060020a03811615156100a957600080fd5b60039290925560028054600160a060020a03928316600160a060020a03199182161790915560018054929093169116179055428210156100e857600080fd5b818110156100f557600080fd5b6005919091556006556000811161010b57600080fd5b600755600160a060020a038116151561012357600080fd5b600b8054600160a060020a031916600160a060020a0392909216919091179055818110156101d857604080517f08c379a000000000000000000000000000000000000000000000000000000000815260206004820152602f60248201527f5769746864726177616c732073686f756c64206f70656e20616674657220637260448201527f6f776473616c6520636c6f7365732e0000000000000000000000000000000000606482015290519081900360840190fd5b600c5550505050505050611087806101f16000396000f3006080604052600436106101955763ffffffff7c0100000000000000000000000000000000000000000000000000000000600035041663095272aa81146101a05780631515bc2b146101c757806317ffc320146101f057806327e235e3146102115780632aed7f3f146102325780632c4e722e14610253578063355274ea146102685780634042b66f1461027d57806342e94c901461029257806345cb3dde146102b357806349df728c146102c85780634b6753bc146102e95780634f935945146102fe578063518ab2a814610313578063521eb273146103285780635ecb16cd1461035957806366d97b21146103ae578063715018a6146103cf5780638b58c64c146103e45780638d8f2adb146104055780638da5cb5b1461041a578063a31f61fc1461042f578063b7a8807c14610453578063bb8b2b4714610468578063bf58390314610489578063bff99c6c1461049e578063c0ee0b8a146104b3578063c3143fe5146104e4578063ec8ac4d814610508578063ecb70fb71461051c578063f2fde38b14610531578063fc0c546a14610552575b61019e33610567565b005b3480156101ac57600080fd5b506101b5610609565b60408051918252519081900360200190f35b3480156101d357600080fd5b506101dc61060f565b604080519115158252519081900360200190f35b3480156101fc57600080fd5b5061019e600160a060020a0360043516610617565b34801561021d57600080fd5b506101b5600160a060020a03600435166106e3565b34801561023e57600080fd5b5061019e600160a060020a03600435166106f5565b34801561025f57600080fd5b506101b561078f565b34801561027457600080fd5b506101b5610795565b34801561028957600080fd5b506101b561079b565b34801561029e57600080fd5b506101b5600160a060020a03600435166107a1565b3480156102bf57600080fd5b506101b56107b3565b3480156102d457600080fd5b5061019e600160a060020a03600435166107b9565b3480156102f557600080fd5b506101b56107c5565b34801561030a57600080fd5b506101dc6107cb565b34801561031f57600080fd5b506101b56107d6565b34801561033457600080fd5b5061033d6107dc565b60408051600160a060020a039092168252519081900360200190f35b34801561036557600080fd5b506040805160206004803580820135838102808601850190965280855261019e953695939460249493850192918291850190849080828437509497506107eb9650505050505050565b3480156103ba57600080fd5b506101b5600160a060020a036004351661082b565b3480156103db57600080fd5b5061019e61083d565b3480156103f057600080fd5b506101b5600160a060020a03600435166108a9565b34801561041157600080fd5b5061019e6108c4565b34801561042657600080fd5b5061033d6108cf565b34801561043b57600080fd5b5061019e6024600480358281019291013590356108de565b34801561045f57600080fd5b506101b5610944565b34801561047457600080fd5b506101b5600160a060020a036004351661094a565b34801561049557600080fd5b506101b5610965565b3480156104aa57600080fd5b5061033d610a0a565b3480156104bf57600080fd5b5061019e60048035600160a060020a0316906024803591604435918201910135610a19565b3480156104f057600080fd5b5061019e600160a060020a0360043516602435610a1e565b61019e600160a060020a0360043516610567565b34801561052857600080fd5b506101dc610a51565b34801561053d57600080fd5b5061019e600160a060020a0360043516610a6e565b34801561055e57600080fd5b5061033d610a8e565b3460006105748383610a9d565b61057d82610ae7565b600454909150610593908363ffffffff610b0416565b6004556105a08382610b11565b60408051838152602081018390528151600160a060020a0386169233927f623b3804fa71d67900d064613da8f94b9617215ee90799290593e1745087ad18929081900390910190a36105f28383610b35565b6105fa610b88565b61060483836106df565b505050565b600e5481565b600654421190565b60008054600160a060020a0316331461062f57600080fd5b604080517f70a082310000000000000000000000000000000000000000000000000000000081523060048201529051600160a060020a038416916370a082319160248083019260209291908290030181600087803b15801561069057600080fd5b505af11580156106a4573d6000803e3d6000fd5b505050506040513d60208110156106ba57600080fd5b50516000549091506106df90600160a060020a0384811691168363ffffffff610bc116565b5050565b600a6020526000908152604090205481565b60008054600160a060020a0316331461070d57600080fd5b5060008054604080517ff2fde38b000000000000000000000000000000000000000000000000000000008152600160a060020a039283166004820152905184939284169263f2fde38b926024808201939182900301818387803b15801561077357600080fd5b505af1158015610787573d6000803e3d6000fd5b505050505050565b60035481565b60075481565b60045481565b60086020526000908152604090205481565b600c5481565b6107c281610c74565b50565b60065481565b600754600454101590565b600d5481565b600254600160a060020a031681565b60005b81518163ffffffff1610156106df57610823828263ffffffff1681518110151561081457fe5b90602001906020020151610c74565b6001016107ee565b60096020526000908152604090205481565b600054600160a060020a0316331461085457600080fd5b60008054604051600160a060020a03909116917ff8df31144d9c2f0f6b59d69b8b98abd5459d07f2742c4df920b25aae33c6482091a26000805473ffffffffffffffffffffffffffffffffffffffff19169055565b600160a060020a031660009081526009602052604090205490565b6108cd33610c74565b565b600054600160a060020a031681565b60008054600160a060020a031633146108f657600080fd5b5060005b8281101561093e57816009600086868581811061091357fe5b60209081029290920135600160a060020a0316835250810191909152604001600020556001016108fa565b50505050565b60055481565b600160a060020a031660009081526008602052604090205490565b600154600b54604080517fdd62ed3e000000000000000000000000000000000000000000000000000000008152600160a060020a0392831660048201523060248201529051600093929092169163dd62ed3e9160448082019260209290919082900301818787803b1580156109d957600080fd5b505af11580156109ed573d6000803e3d6000fd5b505050506040513d6020811015610a0357600080fd5b5051905090565b600b54600160a060020a031681565b600080fd5b600054600160a060020a03163314610a3557600080fd5b600160a060020a03909116600090815260096020526040902055565b6000610a5b61060f565b80610a695750610a696107cb565b905090565b600054600160a060020a03163314610a8557600080fd5b6107c281610ced565b600154600160a060020a031681565b610aa78282610d6a565b600160a060020a038216600090815260096020908152604080832054600890925290912054610adc908363ffffffff610b0416565b11156106df57600080fd5b6000610afe60035483610d8a90919063ffffffff16565b92915050565b81810182811015610afe57fe5b610b1b8282610db3565b600d54610b2e908263ffffffff610b0416565b600d555050565b610b3f82826106df565b600160a060020a038216600090815260086020526040902054610b68908263ffffffff610b0416565b600160a060020a0390921660009081526008602052604090209190915550565b600254604051600160a060020a03909116903480156108fc02916000818181858888f193505050501580156107c2573d6000803e3d6000fd5b82600160a060020a031663a9059cbb83836040518363ffffffff167c01000000000000000000000000000000000000000000000000000000000281526004018083600160a060020a0316600160a060020a0316815260200182815260200192505050602060405180830381600087803b158015610c3d57600080fd5b505af1158015610c51573d6000803e3d6000fd5b505050506040513d6020811015610c6757600080fd5b5051151561060457600080fd5b600c544211610ce457604080517f08c379a000000000000000000000000000000000000000000000000000000000815260206004820152601560248201527f5769746864726177616c73206e6f74206f70656e2e0000000000000000000000604482015290519081900360640190fd5b6107c281610dfc565b600160a060020a0381161515610d0257600080fd5b60008054604051600160a060020a03808516939216917f8be0079c531659141344cd1fd0a4f28419497f9722a3daafe3b4186f6b6457e091a36000805473ffffffffffffffffffffffffffffffffffffffff1916600160a060020a0392909216919091179055565b610d748282610f1e565b600754600454610adc908363ffffffff610b0416565b6000821515610d9b57506000610afe565b50818102818382811515610dab57fe5b0414610afe57fe5b600160a060020a0382166000908152600a6020526040902054610ddc908263ffffffff610b0416565b600160a060020a039092166000908152600a602052604090209190915550565b6000610e0661060f565b1515610e7357604080517f08c379a000000000000000000000000000000000000000000000000000000000815260206004820152601560248201527f43726f776473616c65206e6f7420636c6f7365642e0000000000000000000000604482015290519081900360640190fd5b50600160a060020a0381166000908152600a6020526040812054908111610efb57604080517f08c379a000000000000000000000000000000000000000000000000000000000815260206004820152601d60248201527f42656e656669636961727920686173207a65726f2062616c616e63652e000000604482015290519081900360640190fd5b600160a060020a0382166000908152600a60205260408120556106df8282610f47565b6005544210158015610f3257506006544211155b1515610f3d57600080fd5b6106df8282610f6b565b610f518282610f8c565b600e54610f64908263ffffffff610b0416565b600e555050565b600160a060020a0382161515610f8057600080fd5b8015156106df57600080fd5b600b546001546106df91600160a060020a039182169116848463ffffffff610fb016565b604080517f23b872dd000000000000000000000000000000000000000000000000000000008152600160a060020a0385811660048301528481166024830152604482018490529151918616916323b872dd916064808201926020929091908290030181600087803b15801561102457600080fd5b505af1158015611038573d6000803e3d6000fd5b505050506040513d602081101561104e57600080fd5b5051151561093e57600080fd00a165627a7a7230582022af614e1c7d8639a7cae154729baf81dd8986a4300f36b90d5f1a2868033d260029a165627a7a72305820edf541693ec34ea71d13a09ee2edbe0dab893a67b2e7cd11965d349f400c15630029608060405234801561001057600080fd5b50604051604080610b5083398101604052805160209091015160008054600160a060020a031916331790558082341561004857600080fd5b600160a060020a03811615156100bf57604080517f08c379a000000000000000000000000000000000000000000000000000000000815260206004820181905260248201527f546f6b656e20616464726573732073686f756c64206e6f74206265203078302e604482015290519081900360640190fd5b60028054600160a060020a031916600160a060020a039290921691909117905542811161017357604080517f08c379a000000000000000000000000000000000000000000000000000000000815260206004820152602560248201527f52656c656173652074696d652073686f756c6420626520696e2074686520667560448201527f747572652e000000000000000000000000000000000000000000000000000000606482015290519081900360840190fd5b60035550506109c9806101876000396000f3006080604052600436106100ae5763ffffffff7c01000000000000000000000000000000000000000000000000000000006000350416632aed7f3f81146100bd57806347e7ef24146100e057806351cff8d914610104578063685ca19414610125578063715018a61461015a5780638da5cb5b1461016f5780639f727c27146101a0578063b91d4001146101b5578063e3a9db1a146101dc578063f2fde38b146101fd578063fc0c546a1461021e575b3480156100ba57600080fd5b50005b3480156100c957600080fd5b506100de600160a060020a0360043516610233565b005b3480156100ec57600080fd5b506100de600160a060020a03600435166024356102cd565b34801561011057600080fd5b506100de600160a060020a03600435166104c3565b34801561013157600080fd5b50610146600160a060020a0360043516610545565b604080519115158252519081900360200190f35b34801561016657600080fd5b506100de61054f565b34801561017b57600080fd5b506101846105bb565b60408051600160a060020a039092168252519081900360200190f35b3480156101ac57600080fd5b506100de6105ca565b3480156101c157600080fd5b506101ca61061c565b60408051918252519081900360200190f35b3480156101e857600080fd5b506101ca600160a060020a0360043516610622565b34801561020957600080fd5b506100de600160a060020a036004351661063d565b34801561022a57600080fd5b5061018461065d565b60008054600160a060020a0316331461024b57600080fd5b5060008054604080517ff2fde38b000000000000000000000000000000000000000000000000000000008152600160a060020a039283166004820152905184939284169263f2fde38b926024808201939182900301818387803b1580156102b157600080fd5b505af11580156102c5573d6000803e3d6000fd5b505050505050565b600054600160a060020a031633146102e457600080fd5b600160a060020a038216151561038157604080517f08c379a000000000000000000000000000000000000000000000000000000000815260206004820152602660248201527f44657374696e6174696f6e20616464726573732073686f756c64206e6f74206260448201527f65203078302e0000000000000000000000000000000000000000000000000000606482015290519081900360840190fd5b600160a060020a03821630141561041f57604080517f08c379a000000000000000000000000000000000000000000000000000000000815260206004820152602d60248201527f4465706f736974732073686f756c64206e6f74206265206d61646520746f207460448201527f68697320636f6e74726163742e00000000000000000000000000000000000000606482015290519081900360840190fd5b600160a060020a038216600090815260016020526040902054610448908263ffffffff61066c16565b600160a060020a038084166000908152600160205260408120929092559054600254610480929081169116308463ffffffff61067f16565b604080518281529051600160a060020a038416917f2da466a7b24304f47e87fa2e1e5a81b9831ce54fec19055ce277ca2f39ba42c4919081900360200190a25050565b6104cc81610545565b151561053957604080517f08c379a000000000000000000000000000000000000000000000000000000000815260206004820152601a60248201527f5769746864726177616c206973206e6f7420616c6c6f7765642e000000000000604482015290519081900360640190fd5b61054281610730565b50565b5060035442101590565b600054600160a060020a0316331461056657600080fd5b60008054604051600160a060020a03909116917ff8df31144d9c2f0f6b59d69b8b98abd5459d07f2742c4df920b25aae33c6482091a26000805473ffffffffffffffffffffffffffffffffffffffff19169055565b600054600160a060020a031681565b600054600160a060020a031633146105e157600080fd5b60008054604051600160a060020a0390911691303180156108fc02929091818181858888f19350505050158015610542573d6000803e3d6000fd5b60035481565b600160a060020a031660009081526001602052604090205490565b600054600160a060020a0316331461065457600080fd5b61054281610868565b600254600160a060020a031681565b8181018281101561067957fe5b92915050565b604080517f23b872dd000000000000000000000000000000000000000000000000000000008152600160a060020a0385811660048301528481166024830152604482018490529151918616916323b872dd916064808201926020929091908290030181600087803b1580156106f357600080fd5b505af1158015610707573d6000803e3d6000fd5b505050506040513d602081101561071d57600080fd5b5051151561072a57600080fd5b50505050565b60008054600160a060020a0316331461074857600080fd5b50600160a060020a0380821660009081526001602090815260408083205460025482517f70a082310000000000000000000000000000000000000000000000000000000081523060048201529251919586959116936370a08231936024808201949293918390030190829087803b1580156107c257600080fd5b505af11580156107d6573d6000803e3d6000fd5b505050506040513d60208110156107ec57600080fd5b505110156107f657fe5b600160a060020a038083166000908152600160205260408120556002546108259116838363ffffffff6108e516565b604080518281529051600160a060020a038416917f7084f5476618d8e60b11ef0d7d3f06914655adb8793e28ff7f018d4c76d505d5919081900360200190a25050565b600160a060020a038116151561087d57600080fd5b60008054604051600160a060020a03808516939216917f8be0079c531659141344cd1fd0a4f28419497f9722a3daafe3b4186f6b6457e091a36000805473ffffffffffffffffffffffffffffffffffffffff1916600160a060020a0392909216919091179055565b82600160a060020a031663a9059cbb83836040518363ffffffff167c01000000000000000000000000000000000000000000000000000000000281526004018083600160a060020a0316600160a060020a0316815260200182815260200192505050602060405180830381600087803b15801561096157600080fd5b505af1158015610975573d6000803e3d6000fd5b505050506040513d602081101561098b57600080fd5b5051151561099857600080fd5b5050505600a165627a7a72305820a6a2e4cf795e3d05cb1355f5110b8a27b5045f1b299965146f194de70c0c73400029",
  "source": "pragma solidity 0.4.24;\n\nimport \"openzeppelin-solidity/contracts/math/SafeMath.sol\";\nimport \"openzeppelin-solidity/contracts/ownership/HasNoEther.sol\";\nimport \"./lifecycle/Finalizable.sol\";\nimport \"./payment/TokenTimelockEscrow.sol\";\nimport \"./payment/TokenTimelockFactory.sol\";\nimport \"./payment/TokenVestingFactory.sol\";\nimport \"./TokenTimelockEscrowImpl.sol\";\nimport \"./TokenCrowdsale.sol\";\n\n\n/**\n * @title TokenDistributor\n * @dev This is a token distribution contract used to distribute tokens and create a public Crowdsale.\n */\ncontract TokenDistributor is HasNoEther, Finalizable {\n  using SafeMath for uint256;\n  using SafeERC20 for ERC20;\n\n  // We also declare Factory.ContractInstantiation here to read it in truffle logs\n  // https://github.com/trufflesuite/truffle/issues/555\n  event ContractInstantiation(address sender, address instantiation);\n  event CrowdsaleInstantiated(address sender, address instantiation, uint256 allowance);\n\n  /// Party (team multisig) who is in the control of the token pool.\n  /// @notice this will be different from the owner address (scripted) that calls this contract.\n  address public benefactor;\n\n  // How many token units a buyer gets per wei.\n  // The rate is the conversion between wei and the smallest and indivisible token unit.\n  // So, if you are using a rate of 1 with a DetailedERC20 token with 3 decimals called TOK\n  // 1 wei will give you 1 unit, or 0.001 TOK.\n  uint256 public rate;\n\n   // Address where funds are collected\n  address public wallet;\n\n  // The token being sold\n  ERC20 public token;\n\n  // Max cap for presale + crowdsale\n  uint256 public cap;\n\n  // Crowdsale is open in this period\n  uint256 public openingTime;\n  uint256 public closingTime;\n\n  // When withdrawals open\n  uint256 public withdrawTime;\n\n  // Amount of wei raised\n  uint256 public weiRaised;\n\n  // Crowdsale that is created after the presale distribution is finalized\n  TokenCrowdsale public crowdsale;\n\n  // Escrow contract used to lock team tokens until crowdsale ends\n  TokenTimelockEscrow public presaleEscrow;\n\n  // Escrow contract used to lock bonus tokens\n  TokenTimelockEscrow public bonusEscrow;\n\n  // Factory used to create individual time locked token contracts\n  TokenTimelockFactory public timelockFactory;\n\n  // Factory used to create individual vesting token contracts\n  TokenVestingFactory public vestingFactory;\n\n  /// @dev Throws if called before the crowdsale is created.\n  modifier onlyIfCrowdsale() {\n    require(crowdsale != address(0), \"Crowdsale not started.\");\n    _;\n  }\n\n  constructor(\n    address _benefactor,\n    uint256 _rate,\n    address _wallet,\n    ERC20 _token,\n    uint256 _cap,\n    uint256 _openingTime,\n    uint256 _closingTime,\n    uint256 _withdrawTime,\n    uint256 _bonusTime\n  )\n    public\n  {\n    require(address(_benefactor) != address(0), \"Benefactor address should not be 0x0.\");\n    require(_rate > 0, \"Rate should not be > 0.\");\n    require(_wallet != address(0), \"Wallet address should not be 0x0.\");\n    require(address(_token) != address(0), \"Token address should not be 0x0.\");\n    require(_cap > 0, \"Cap should be > 0.\");\n    // solium-disable-next-line security/no-block-members\n    require(_openingTime > block.timestamp, \"Opening time should be in the future.\");\n    require(_closingTime > _openingTime, \"Closing time should be after opening.\");\n    require(_withdrawTime >= _closingTime, \"Withdrawals should open after crowdsale closes.\");\n    require(_bonusTime > _withdrawTime, \"Bonus time should be set after withdrawals open.\");\n\n    benefactor = _benefactor;\n    rate = _rate;\n    wallet = _wallet;\n    token = _token;\n    cap = _cap;\n    openingTime = _openingTime;\n    closingTime = _closingTime;\n    withdrawTime = _withdrawTime;\n\n    presaleEscrow = new TokenTimelockEscrowImpl(_token, _withdrawTime);\n    bonusEscrow = new TokenTimelockEscrowImpl(_token, _bonusTime);\n  }\n\n  /**\n   * @dev Sets a specific user's maximum contribution.\n   * @param _beneficiary Address to be capped\n   * @param _cap Wei limit for individual contribution\n   */\n  function setUserCap(address _beneficiary, uint256 _cap) external onlyOwner onlyIfCrowdsale {\n    crowdsale.setUserCap(_beneficiary, _cap);\n  }\n\n  /**\n   * @dev Sets a group of users' maximum contribution.\n   * @param _beneficiaries List of addresses to be capped\n   * @param _cap Wei limit for individual contribution\n   */\n  function setGroupCap(address[] _beneficiaries, uint256 _cap) external onlyOwner onlyIfCrowdsale {\n    crowdsale.setGroupCap(_beneficiaries, _cap);\n  }\n\n  /**\n   * @dev Returns the cap of a specific user.\n   * @param _beneficiary Address whose cap is to be checked\n   * @return Current cap for individual user\n   */\n  function getUserCap(address _beneficiary) public view onlyIfCrowdsale returns (uint256) {\n    return crowdsale.getUserCap(_beneficiary);\n  }\n\n  /**\n   * @dev Called by the payer to store the sent amount as credit to be pulled when withdrawals open.\n   * @param _dest The destination address of the funds.\n   * @param _amount The amount to transfer.\n   */\n  function depositPresale(address _dest, uint256 _amount) public onlyOwner onlyNotFinalized {\n    require(_dest != address(this), \"Transfering tokens to this contract address is not allowed.\");\n    require(token.allowance(benefactor, this) >= _amount, \"Not enough allowance.\");\n    token.transferFrom(benefactor, this, _amount);\n    token.approve(presaleEscrow, _amount);\n    presaleEscrow.deposit(_dest, _amount);\n  }\n\n  /**\n   * @dev Called by the payer to store the sent amount as credit to be pulled when withdrawals open.\n   * @param _dest The destination address of the funds.\n   * @param _amount The amount to transfer.\n   * @param _weiAmount The amount of wei exchanged for the tokens.\n   */\n  function depositPresale(address _dest, uint256 _amount, uint256 _weiAmount) public {\n    require(cap >= weiRaised.add(_weiAmount), \"Cap reached.\");\n    depositPresale(_dest, _amount);\n    weiRaised = weiRaised.add(_weiAmount);\n  }\n\n  /// @dev Withdraw accumulated balance, called by beneficiary.\n  function withdrawPresale() public {\n    presaleEscrow.withdraw(msg.sender);\n  }\n\n  /**\n   * @dev Withdraw accumulated balance for beneficiary.\n   * @param _beneficiary Address of beneficiary\n   */\n  function withdrawPresale(address _beneficiary) public {\n    presaleEscrow.withdraw(_beneficiary);\n  }\n\n  /**\n   * @dev Withdraw accumulated balances for beneficiaries.\n   * @param _beneficiaries List of addresses of beneficiaries\n   */\n  function withdrawPresale(address[] _beneficiaries) public {\n    for (uint32 i = 0; i < _beneficiaries.length; i ++) {\n      presaleEscrow.withdraw(_beneficiaries[i]);\n    }\n  }\n\n  /**\n   * @dev Called by the payer to store the sent amount as credit to be pulled from token timelock contract.\n   * @param _dest The destination address of the funds.\n   * @param _amount The amount to transfer.\n   */\n  function depositBonus(address _dest, uint256 _amount) public onlyOwner onlyNotFinalized {\n    require(_dest != address(this), \"Transfering tokens to this contract address is not allowed.\");\n    require(token.allowance(benefactor, this) >= _amount, \"Not enough allowance.\");\n    token.transferFrom(benefactor, this, _amount);\n    token.approve(bonusEscrow, _amount);\n    bonusEscrow.deposit(_dest, _amount);\n  }\n\n  /// @dev Withdraw accumulated balance, called by beneficiary.\n  function withdrawBonus() public {\n    bonusEscrow.withdraw(msg.sender);\n  }\n\n  /**\n   * @dev Withdraw accumulated balance for beneficiary.\n   * @param _beneficiary Address of beneficiary\n   */\n  function withdrawBonus(address _beneficiary) public {\n    bonusEscrow.withdraw(_beneficiary);\n  }\n\n  /**\n   * @dev Withdraw accumulated balances for beneficiaries.\n   * @param _beneficiaries List of addresses of beneficiaries\n   */\n  function withdrawBonus(address[] _beneficiaries) public {\n    for (uint32 i = 0; i < _beneficiaries.length; i ++) {\n      bonusEscrow.withdraw(_beneficiaries[i]);\n    }\n  }\n\n  /**\n   * @dev Called by the payer to deposit tokens and bonus as credit to be pulled by benefactor.\n   * @param _dest The destination address of the funds.\n   * @param _amount The amount to transfer.\n   * @param _bonusAmount The bonus amount to transfer.\n   */\n  function depositPresaleWithBonus(\n    address _dest,\n    uint256 _amount,\n    uint256 _bonusAmount\n  )\n    public\n  {\n    depositPresale(_dest, _amount);\n    depositBonus(_dest, _bonusAmount);\n  }\n\n  /**\n   * @dev Called by the payer to deposit tokens and bonus as credit to be pulled by benefactor.\n   * @param _dest The destination address of the funds.\n   * @param _amount The amount to transfer.\n   * @param _weiAmount The amount of wei exchanged for the tokens.\n   * @param _bonusAmount The bonus amount to transfer.\n   */\n  function depositPresaleWithBonus(\n    address _dest,\n    uint256 _amount,\n    uint256 _weiAmount,\n    uint256 _bonusAmount\n  )\n    public\n  {\n    depositPresale(_dest, _amount, _weiAmount);\n    depositBonus(_dest, _bonusAmount);\n  }\n\n  /**\n   * @dev Setter for TokenTimelockFactory because of gas limits\n   * @param _timelockFactory Address of the TokenTimelockFactory contract\n   */\n  function setTokenTimelockFactory(address _timelockFactory) public onlyOwner {\n    require(_timelockFactory != address(0), \"Factory address should not be 0x0.\");\n    require(timelockFactory == address(0), \"Factory already initalizied.\");\n    timelockFactory = TokenTimelockFactory(_timelockFactory);\n  }\n\n  /**\n   * @dev Called by the payer to store the sent amount as credit to be pulled\n   * from token timelock contract.\n   * @param _dest The destination address of the funds.\n   * @param _amount The amount to transfer.\n   * @param _releaseTime The release times after which the tokens can be withdrawn.\n   * @return Returns wallet address.\n   */\n  function depositAndLock(\n    address _dest,\n    uint256 _amount,\n    uint256 _releaseTime\n  )\n    public\n    onlyOwner\n    onlyNotFinalized\n    returns (address tokenWallet)\n  {\n    require(token.allowance(benefactor, this) >= _amount, \"Not enough allowance.\");\n    require(_dest != address(0), \"Destination address should not be 0x0.\");\n    require(_dest != address(this), \"Transfering tokens to this contract address is not allowed.\");\n    require(_releaseTime >= withdrawTime, \"Tokens should unlock after withdrawals open.\");\n    tokenWallet = timelockFactory.create(\n      token,\n      _dest,\n      _releaseTime\n    );\n    token.transferFrom(benefactor, tokenWallet, _amount);\n  }\n\n  /**\n   * @dev Setter for TokenVestingFactory because of gas limits\n   * @param _vestingFactory Address of the TokenVestingFactory contract\n   */\n  function setTokenVestingFactory(address _vestingFactory) public onlyOwner {\n    require(_vestingFactory != address(0), \"Factory address should not be 0x0.\");\n    require(vestingFactory == address(0), \"Factory already initalizied.\");\n    vestingFactory = TokenVestingFactory(_vestingFactory);\n  }\n\n  /**\n   * @dev Called by the payer to store the sent amount as credit to be pulled\n   * from token vesting contract.\n   * @param _dest The destination address of the funds.\n   * @param _amount The amount to transfer.\n   * @param _cliff duration in seconds of the cliff in which tokens will begin to vest\n   * @param _start the time (as Unix time) at which point vesting starts\n   * @param _duration duration in seconds of the period in which the tokens will vest\n   * @return Returns wallet address.\n   */\n  function depositAndVest(\n    address _dest,\n    uint256 _amount,\n    uint256 _start,\n    uint256 _cliff,\n    uint256 _duration\n  )\n    public\n    onlyOwner\n    onlyNotFinalized\n    returns (address tokenWallet)\n  {\n    require(token.allowance(benefactor, this) >= _amount, \"Not enough allowance.\");\n    require(_dest != address(0), \"Destination address should not be 0x0.\");\n    require(_dest != address(this), \"Transfering tokens to this contract address is not allowed.\");\n    require(_start.add(_cliff) >= withdrawTime, \"Tokens should unlock after withdrawals open.\");\n    bool revocable = false;\n    tokenWallet = vestingFactory.create(\n      _dest,\n      _start,\n      _cliff,\n      _duration,\n      revocable\n    );\n    token.transferFrom(benefactor, tokenWallet, _amount);\n  }\n\n  /**\n   * @dev In case there are any unsold tokens, they are claimed by the owner\n   * @param _beneficiary Address where claimable tokens are going to be transfered\n   */\n  function claimUnsold(address _beneficiary) public onlyIfCrowdsale onlyOwner {\n    // solium-disable-next-line security/no-block-members\n    require(block.timestamp > withdrawTime, \"Withdrawals not open.\");\n    uint256 sold = crowdsale.tokensSold();\n    uint256 delivered = crowdsale.tokensDelivered();\n    uint256 toDeliver = sold.sub(delivered);\n\n    uint256 balance = token.balanceOf(this);\n    uint256 claimable = balance.sub(toDeliver);\n\n    if (claimable > 0) {\n      token.safeTransfer(_beneficiary, claimable);\n    }\n  }\n\n  /**\n   * @dev Finalization logic that will create a Crowdsale with provided parameters\n   * and calculated cap depending on the amount raised in presale.\n   */\n  function finalization() internal {\n    uint256 crowdsaleCap = cap.sub(weiRaised);\n    if (crowdsaleCap < 1 ether) {\n      // Cap reached in presale, no crowdsale necessary\n      return;\n    }\n\n    address tokenWallet = this;\n    crowdsale = new TokenCrowdsale(\n      rate,\n      wallet,\n      token,\n      tokenWallet,\n      crowdsaleCap,\n      openingTime,\n      closingTime,\n      withdrawTime\n    );\n    uint256 allowance = token.allowance(benefactor, this);\n    token.transferFrom(benefactor, this, allowance);\n    token.approve(crowdsale, allowance);\n    emit CrowdsaleInstantiated(msg.sender, crowdsale, allowance);\n  }\n\n}\n",
  "sourcePath": "/Users/krebernisak/Documents/workspace/work/runningbeta/weinorth/tolar/contracts/TokenDistributor.sol",
  "compiler": {
    "name": "solc",
    "version": "0.4.24+commit.e67f0147.Emscripten.clang"
  },
  "schemaVersion": "2.0.1",
  "updatedAt": "2018-09-12T13:47:04.844Z"
}