{
  "contractName": "TokenEscrow",
  "abi": [
    {
      "constant": false,
      "inputs": [],
      "name": "renounceOwnership",
      "outputs": [],
      "payable": false,
      "stateMutability": "nonpayable",
      "type": "function"
    },
    {
      "constant": true,
      "inputs": [],
      "name": "owner",
      "outputs": [
        {
          "name": "",
          "type": "address"
        }
      ],
      "payable": false,
      "stateMutability": "view",
      "type": "function"
    },
    {
      "constant": false,
      "inputs": [
        {
          "name": "_newOwner",
          "type": "address"
        }
      ],
      "name": "transferOwnership",
      "outputs": [],
      "payable": false,
      "stateMutability": "nonpayable",
      "type": "function"
    },
    {
      "constant": true,
      "inputs": [],
      "name": "token",
      "outputs": [
        {
          "name": "",
          "type": "address"
        }
      ],
      "payable": false,
      "stateMutability": "view",
      "type": "function"
    },
    {
      "inputs": [
        {
          "name": "_token",
          "type": "address"
        }
      ],
      "payable": false,
      "stateMutability": "nonpayable",
      "type": "constructor"
    },
    {
      "anonymous": false,
      "inputs": [
        {
          "indexed": true,
          "name": "payee",
          "type": "address"
        },
        {
          "indexed": false,
          "name": "amount",
          "type": "uint256"
        }
      ],
      "name": "Deposited",
      "type": "event"
    },
    {
      "anonymous": false,
      "inputs": [
        {
          "indexed": true,
          "name": "payee",
          "type": "address"
        },
        {
          "indexed": false,
          "name": "amount",
          "type": "uint256"
        }
      ],
      "name": "Withdrawn",
      "type": "event"
    },
    {
      "anonymous": false,
      "inputs": [
        {
          "indexed": true,
          "name": "previousOwner",
          "type": "address"
        }
      ],
      "name": "OwnershipRenounced",
      "type": "event"
    },
    {
      "anonymous": false,
      "inputs": [
        {
          "indexed": true,
          "name": "previousOwner",
          "type": "address"
        },
        {
          "indexed": true,
          "name": "newOwner",
          "type": "address"
        }
      ],
      "name": "OwnershipTransferred",
      "type": "event"
    },
    {
      "constant": true,
      "inputs": [
        {
          "name": "_payee",
          "type": "address"
        }
      ],
      "name": "depositsOf",
      "outputs": [
        {
          "name": "",
          "type": "uint256"
        }
      ],
      "payable": false,
      "stateMutability": "view",
      "type": "function"
    },
    {
      "constant": false,
      "inputs": [
        {
          "name": "_payee",
          "type": "address"
        },
        {
          "name": "_amount",
          "type": "uint256"
        }
      ],
      "name": "deposit",
      "outputs": [],
      "payable": false,
      "stateMutability": "nonpayable",
      "type": "function"
    },
    {
      "constant": false,
      "inputs": [
        {
          "name": "_payee",
          "type": "address"
        }
      ],
      "name": "withdraw",
      "outputs": [],
      "payable": false,
      "stateMutability": "nonpayable",
      "type": "function"
    }
  ],
  "bytecode": "0x608060405234801561001057600080fd5b50604051602080610872833981016040525160008054600160a060020a03191633179055600160a060020a03811615156100ab57604080517f08c379a000000000000000000000000000000000000000000000000000000000815260206004820181905260248201527f546f6b656e20616464726573732073686f756c64206e6f74206265203078302e604482015290519081900360640190fd5b60028054600160a060020a031916600160a060020a0392909216919091179055610798806100da6000396000f3006080604052600436106100825763ffffffff7c010000000000000000000000000000000000000000000000000000000060003504166347e7ef24811461008757806351cff8d9146100ad578063715018a6146100ce5780638da5cb5b146100e3578063e3a9db1a14610114578063f2fde38b14610147578063fc0c546a14610168575b600080fd5b34801561009357600080fd5b506100ab600160a060020a036004351660243561017d565b005b3480156100b957600080fd5b506100ab600160a060020a0360043516610373565b3480156100da57600080fd5b506100ab6104ab565b3480156100ef57600080fd5b506100f8610517565b60408051600160a060020a039092168252519081900360200190f35b34801561012057600080fd5b50610135600160a060020a0360043516610526565b60408051918252519081900360200190f35b34801561015357600080fd5b506100ab600160a060020a0360043516610541565b34801561017457600080fd5b506100f8610564565b600054600160a060020a0316331461019457600080fd5b600160a060020a038216151561023157604080517f08c379a000000000000000000000000000000000000000000000000000000000815260206004820152602660248201527f44657374696e6174696f6e20616464726573732073686f756c64206e6f74206260448201527f65203078302e0000000000000000000000000000000000000000000000000000606482015290519081900360840190fd5b600160a060020a0382163014156102cf57604080517f08c379a000000000000000000000000000000000000000000000000000000000815260206004820152602d60248201527f4465706f736974732073686f756c64206e6f74206265206d61646520746f207460448201527f68697320636f6e74726163742e00000000000000000000000000000000000000606482015290519081900360840190fd5b600160a060020a0382166000908152600160205260409020546102f8908263ffffffff61057316565b600160a060020a038084166000908152600160205260408120929092559054600254610330929081169116308463ffffffff61058616565b604080518281529051600160a060020a038416917f2da466a7b24304f47e87fa2e1e5a81b9831ce54fec19055ce277ca2f39ba42c4919081900360200190a25050565b60008054600160a060020a0316331461038b57600080fd5b50600160a060020a0380821660009081526001602090815260408083205460025482517f70a082310000000000000000000000000000000000000000000000000000000081523060048201529251919586959116936370a08231936024808201949293918390030190829087803b15801561040557600080fd5b505af1158015610419573d6000803e3d6000fd5b505050506040513d602081101561042f57600080fd5b5051101561043957fe5b600160a060020a038083166000908152600160205260408120556002546104689116838363ffffffff61063716565b604080518281529051600160a060020a038416917f7084f5476618d8e60b11ef0d7d3f06914655adb8793e28ff7f018d4c76d505d5919081900360200190a25050565b600054600160a060020a031633146104c257600080fd5b60008054604051600160a060020a03909116917ff8df31144d9c2f0f6b59d69b8b98abd5459d07f2742c4df920b25aae33c6482091a26000805473ffffffffffffffffffffffffffffffffffffffff19169055565b600054600160a060020a031681565b600160a060020a031660009081526001602052604090205490565b600054600160a060020a0316331461055857600080fd5b610561816106ef565b50565b600254600160a060020a031681565b8181018281101561058057fe5b92915050565b604080517f23b872dd000000000000000000000000000000000000000000000000000000008152600160a060020a0385811660048301528481166024830152604482018490529151918616916323b872dd916064808201926020929091908290030181600087803b1580156105fa57600080fd5b505af115801561060e573d6000803e3d6000fd5b505050506040513d602081101561062457600080fd5b5051151561063157600080fd5b50505050565b82600160a060020a031663a9059cbb83836040518363ffffffff167c01000000000000000000000000000000000000000000000000000000000281526004018083600160a060020a0316600160a060020a0316815260200182815260200192505050602060405180830381600087803b1580156106b357600080fd5b505af11580156106c7573d6000803e3d6000fd5b505050506040513d60208110156106dd57600080fd5b505115156106ea57600080fd5b505050565b600160a060020a038116151561070457600080fd5b60008054604051600160a060020a03808516939216917f8be0079c531659141344cd1fd0a4f28419497f9722a3daafe3b4186f6b6457e091a36000805473ffffffffffffffffffffffffffffffffffffffff1916600160a060020a03929092169190911790555600a165627a7a723058202d97887fc5348999e063105ccb90f17cbecbd9c5dca846838e081d040b8e98670029",
  "source": "pragma solidity 0.4.24;\n\nimport \"openzeppelin-solidity/contracts/math/SafeMath.sol\";\nimport \"openzeppelin-solidity/contracts/ownership/Ownable.sol\";\nimport \"openzeppelin-solidity/contracts/token/ERC20/ERC20.sol\";\nimport \"openzeppelin-solidity/contracts/token/ERC20/SafeERC20.sol\";\n\n\n/**\n * @title TokenEscrow\n * @dev Base token escrow contract, holds funds destinated to a payee until they\n * withdraw them. The contract that uses the escrow as its payment method\n * should be its owner, and provide public methods redirecting to the escrow's\n * deposit and withdraw.\n */\ncontract TokenEscrow is Ownable {\n  using SafeMath for uint256;\n  using SafeERC20 for ERC20;\n\n  event Deposited(address indexed payee, uint256 amount);\n  event Withdrawn(address indexed payee, uint256 amount);\n\n  // deposits of the beneficiaries of tokens\n  mapping(address => uint256) private deposits;\n\n  // ERC20 token contract being held\n  ERC20 public token;\n\n  constructor(ERC20 _token) public {\n    require(_token != address(0), \"Token address should not be 0x0.\");\n    token = _token;\n  }\n\n  /**\n   * @dev Returns the token accumulated balance for a payee.\n   * @param _payee The destination address of the tokens.\n   */\n  function depositsOf(address _payee) public view returns (uint256) {\n    return deposits[_payee];\n  }\n\n  /**\n   * @dev Stores the token amount as credit to be withdrawn.\n   * @param _payee The destination address of the tokens.\n   * @param _amount The amount of tokens that can be pulled.\n   */\n  function deposit(address _payee, uint256 _amount) public onlyOwner {\n    require(_payee != address(0), \"Destination address should not be 0x0.\");\n    require(_payee != address(this), \"Deposits should not be made to this contract.\");\n\n    deposits[_payee] = deposits[_payee].add(_amount);\n    token.safeTransferFrom(owner, this, _amount);\n\n    emit Deposited(_payee, _amount);\n  }\n\n  /**\n   * @dev Withdraw accumulated balance for a payee.\n   * @param _payee The address whose tokens will be withdrawn and transferred to.\n   */\n  function withdraw(address _payee) public onlyOwner {\n    uint256 payment = deposits[_payee];\n    assert(token.balanceOf(address(this)) >= payment);\n\n    deposits[_payee] = 0;\n    token.safeTransfer(_payee, payment);\n\n    emit Withdrawn(_payee, payment);\n  }\n}\n",
  "sourcePath": "/Users/krebernisak/Documents/workspace/work/runningbeta/weinorth/tolar/contracts/payment/TokenEscrow.sol",
  "compiler": {
    "name": "solc",
    "version": "0.4.24+commit.e67f0147.Emscripten.clang"
  },
  "schemaVersion": "2.0.1",
  "updatedAt": "2018-09-12T13:47:04.857Z"
}