{
  "contractName": "TokenTimelockFactoryImpl",
  "abi": [
    {
      "constant": true,
      "inputs": [
        {
          "name": "",
          "type": "address"
        }
      ],
      "name": "isInstantiation",
      "outputs": [
        {
          "name": "",
          "type": "bool"
        }
      ],
      "payable": false,
      "stateMutability": "view",
      "type": "function"
    },
    {
      "constant": true,
      "inputs": [
        {
          "name": "",
          "type": "address"
        },
        {
          "name": "",
          "type": "uint256"
        }
      ],
      "name": "instantiations",
      "outputs": [
        {
          "name": "",
          "type": "address"
        }
      ],
      "payable": false,
      "stateMutability": "view",
      "type": "function"
    },
    {
      "constant": true,
      "inputs": [
        {
          "name": "_creator",
          "type": "address"
        }
      ],
      "name": "getInstantiationCount",
      "outputs": [
        {
          "name": "",
          "type": "uint256"
        }
      ],
      "payable": false,
      "stateMutability": "view",
      "type": "function"
    },
    {
      "constant": true,
      "inputs": [
        {
          "name": "",
          "type": "address"
        },
        {
          "name": "",
          "type": "uint256"
        }
      ],
      "name": "beneficiaryInstantiations",
      "outputs": [
        {
          "name": "",
          "type": "address"
        }
      ],
      "payable": false,
      "stateMutability": "view",
      "type": "function"
    },
    {
      "anonymous": false,
      "inputs": [
        {
          "indexed": false,
          "name": "sender",
          "type": "address"
        },
        {
          "indexed": false,
          "name": "instantiation",
          "type": "address"
        }
      ],
      "name": "ContractInstantiation",
      "type": "event"
    },
    {
      "constant": false,
      "inputs": [
        {
          "name": "_token",
          "type": "address"
        },
        {
          "name": "_beneficiary",
          "type": "address"
        },
        {
          "name": "_releaseTime",
          "type": "uint256"
        }
      ],
      "name": "create",
      "outputs": [
        {
          "name": "wallet",
          "type": "address"
        }
      ],
      "payable": false,
      "stateMutability": "nonpayable",
      "type": "function"
    }
  ],
  "bytecode": "0x608060405234801561001057600080fd5b5061097f806100206000396000f30060806040526004361061006c5763ffffffff7c01000000000000000000000000000000000000000000000000000000006000350416632f4f3316811461007157806357183c82146100b35780638f8384781461010d578063d1a93cd81461014d578063ffe5725f1461017e575b600080fd5b34801561007d57600080fd5b5061009f73ffffffffffffffffffffffffffffffffffffffff600435166101b5565b604080519115158252519081900360200190f35b3480156100bf57600080fd5b506100e473ffffffffffffffffffffffffffffffffffffffff600435166024356101ca565b6040805173ffffffffffffffffffffffffffffffffffffffff9092168252519081900360200190f35b34801561011957600080fd5b5061013b73ffffffffffffffffffffffffffffffffffffffff6004351661020e565b60408051918252519081900360200190f35b34801561015957600080fd5b506100e473ffffffffffffffffffffffffffffffffffffffff60043516602435610236565b34801561018a57600080fd5b506100e473ffffffffffffffffffffffffffffffffffffffff60043581169060243516604435610251565b60006020819052908152604090205460ff1681565b6001602052816000526040600020818154811015156101e557fe5b60009182526020909120015473ffffffffffffffffffffffffffffffffffffffff169150829050565b73ffffffffffffffffffffffffffffffffffffffff1660009081526001602052604090205490565b6002602052816000526040600020818154811015156101e557fe5b600073ffffffffffffffffffffffffffffffffffffffff841615156102d757604080517f08c379a000000000000000000000000000000000000000000000000000000000815260206004820181905260248201527f546f6b656e20616464726573732073686f756c64206e6f74206265203078302e604482015290519081900360640190fd5b73ffffffffffffffffffffffffffffffffffffffff8316151561038157604080517f08c379a000000000000000000000000000000000000000000000000000000000815260206004820152602660248201527f42656e656669636961727920616464726573732073686f756c64206e6f74206260448201527f65203078302e0000000000000000000000000000000000000000000000000000606482015290519081900360840190fd5b73ffffffffffffffffffffffffffffffffffffffff831630141561042c57604080517f08c379a000000000000000000000000000000000000000000000000000000000815260206004820152603b60248201527f5472616e73666572696e6720746f6b656e7320746f207468697320636f6e747260448201527f6163742061646472657373206973206e6f7420616c6c6f7765642e0000000000606482015290519081900360840190fd5b838383610437610592565b73ffffffffffffffffffffffffffffffffffffffff9384168152919092166020820152604080820192909252905190819003606001906000f080158015610482573d6000803e3d6000fd5b5073ffffffffffffffffffffffffffffffffffffffff848116600090815260026020908152604082208054600181018255908352912001805473ffffffffffffffffffffffffffffffffffffffff191691831691909117905590506104e6816104ed565b9392505050565b73ffffffffffffffffffffffffffffffffffffffff8116600081815260208181526040808320805460ff19166001908117909155338085528184528285208054928301815585529383902001805473ffffffffffffffffffffffffffffffffffffffff19168517905580519283529082019290925281517f4fb057ad4a26ed17a57957fa69c306f11987596069b89521c511fc9a894e6161929181900390910190a150565b6040516103b1806105a3833901905600608060405234801561001057600080fd5b506040516060806103b183398101604090815281516020830151919092015142811161003b57600080fd5b60008054600160a060020a03948516600160a060020a03199182161790915560018054939094169216919091179091556002556103348061007d6000396000f3006080604052600436106100615763ffffffff7c010000000000000000000000000000000000000000000000000000000060003504166338af3eed811461006657806386d1a69f146100a4578063b91d4001146100bb578063fc0c546a146100e2575b600080fd5b34801561007257600080fd5b5061007b6100f7565b6040805173ffffffffffffffffffffffffffffffffffffffff9092168252519081900360200190f35b3480156100b057600080fd5b506100b9610113565b005b3480156100c757600080fd5b506100d0610207565b60408051918252519081900360200190f35b3480156100ee57600080fd5b5061007b61020d565b60015473ffffffffffffffffffffffffffffffffffffffff1681565b60025460009042101561012557600080fd5b60008054604080517f70a08231000000000000000000000000000000000000000000000000000000008152306004820152905173ffffffffffffffffffffffffffffffffffffffff909216926370a08231926024808401936020939083900390910190829087803b15801561019957600080fd5b505af11580156101ad573d6000803e3d6000fd5b505050506040513d60208110156101c357600080fd5b50519050600081116101d457600080fd5b6001546000546102049173ffffffffffffffffffffffffffffffffffffffff91821691168363ffffffff61022916565b50565b60025481565b60005473ffffffffffffffffffffffffffffffffffffffff1681565b8273ffffffffffffffffffffffffffffffffffffffff1663a9059cbb83836040518363ffffffff167c0100000000000000000000000000000000000000000000000000000000028152600401808373ffffffffffffffffffffffffffffffffffffffff1673ffffffffffffffffffffffffffffffffffffffff16815260200182815260200192505050602060405180830381600087803b1580156102cc57600080fd5b505af11580156102e0573d6000803e3d6000fd5b505050506040513d60208110156102f657600080fd5b5051151561030357600080fd5b5050505600a165627a7a7230582094556037c2bd8e89139665f42266ef76f43f35644c52141e3fe4921c7056a54e0029a165627a7a723058204745c27984c7fe662d5d28be22ec41e3f8c3e798da4a87a531b0f52b07eb49ec0029",
  "source": "pragma solidity 0.4.24;\n\nimport \"openzeppelin-solidity/contracts/token/ERC20/ERC20.sol\";\nimport \"openzeppelin-solidity/contracts/token/ERC20/TokenTimelock.sol\";\nimport \"../lifecycle/Factory.sol\";\nimport \"./TokenTimelockFactory.sol\";\n\n\n/**\n * @title TokenTimelockFactoryImpl\n * @dev Allows creation of timelock wallet.\n */\ncontract TokenTimelockFactoryImpl is TokenTimelockFactory, Factory {\n\n  mapping(address => address[]) public beneficiaryInstantiations;\n\n  /**\n   * @dev Allows verified creation of token timelock wallet.\n   * @param _token Address of the token being locked.\n   * @param _beneficiary address of the beneficiary to whom vested tokens are transferred.\n   * @param _releaseTime The release times after which the tokens can be withdrawn.\n   * @return Returns wallet address.\n   */\n  function create(\n    ERC20 _token,\n    address _beneficiary,\n    uint256 _releaseTime\n  )\n    public\n    returns (address wallet)\n  {\n    require(_token != address(0), \"Token address should not be 0x0.\");\n    require(_beneficiary != address(0), \"Beneficiary address should not be 0x0.\");\n    require(_beneficiary != address(this), \"Transfering tokens to this contract address is not allowed.\");\n    wallet = new TokenTimelock(_token, _beneficiary, _releaseTime);\n    beneficiaryInstantiations[_beneficiary].push(wallet);\n    register(wallet);\n  }\n}\n",
  "sourcePath": "/Users/krebernisak/Documents/workspace/work/runningbeta/weinorth/tolar/contracts/payment/TokenTimelockFactoryImpl.sol",
  "compiler": {
    "name": "solc",
    "version": "0.4.24+commit.e67f0147.Emscripten.clang"
  },
  "schemaVersion": "2.0.1",
  "updatedAt": "2018-09-06T19:26:20.552Z"
}