{
  "contractName": "TokenVesting",
  "abi": [
    {
      "constant": true,
      "inputs": [],
      "name": "duration",
      "outputs": [
        {
          "name": "",
          "type": "uint256"
        }
      ],
      "payable": false,
      "stateMutability": "view",
      "type": "function"
    },
    {
      "constant": true,
      "inputs": [],
      "name": "cliff",
      "outputs": [
        {
          "name": "",
          "type": "uint256"
        }
      ],
      "payable": false,
      "stateMutability": "view",
      "type": "function"
    },
    {
      "constant": true,
      "inputs": [],
      "name": "beneficiary",
      "outputs": [
        {
          "name": "",
          "type": "address"
        }
      ],
      "payable": false,
      "stateMutability": "view",
      "type": "function"
    },
    {
      "constant": false,
      "inputs": [],
      "name": "renounceOwnership",
      "outputs": [],
      "payable": false,
      "stateMutability": "nonpayable",
      "type": "function"
    },
    {
      "constant": true,
      "inputs": [],
      "name": "revocable",
      "outputs": [
        {
          "name": "",
          "type": "bool"
        }
      ],
      "payable": false,
      "stateMutability": "view",
      "type": "function"
    },
    {
      "constant": true,
      "inputs": [],
      "name": "owner",
      "outputs": [
        {
          "name": "",
          "type": "address"
        }
      ],
      "payable": false,
      "stateMutability": "view",
      "type": "function"
    },
    {
      "constant": true,
      "inputs": [
        {
          "name": "",
          "type": "address"
        }
      ],
      "name": "released",
      "outputs": [
        {
          "name": "",
          "type": "uint256"
        }
      ],
      "payable": false,
      "stateMutability": "view",
      "type": "function"
    },
    {
      "constant": true,
      "inputs": [],
      "name": "start",
      "outputs": [
        {
          "name": "",
          "type": "uint256"
        }
      ],
      "payable": false,
      "stateMutability": "view",
      "type": "function"
    },
    {
      "constant": false,
      "inputs": [
        {
          "name": "_newOwner",
          "type": "address"
        }
      ],
      "name": "transferOwnership",
      "outputs": [],
      "payable": false,
      "stateMutability": "nonpayable",
      "type": "function"
    },
    {
      "constant": true,
      "inputs": [
        {
          "name": "",
          "type": "address"
        }
      ],
      "name": "revoked",
      "outputs": [
        {
          "name": "",
          "type": "bool"
        }
      ],
      "payable": false,
      "stateMutability": "view",
      "type": "function"
    },
    {
      "inputs": [
        {
          "name": "_beneficiary",
          "type": "address"
        },
        {
          "name": "_start",
          "type": "uint256"
        },
        {
          "name": "_cliff",
          "type": "uint256"
        },
        {
          "name": "_duration",
          "type": "uint256"
        },
        {
          "name": "_revocable",
          "type": "bool"
        }
      ],
      "payable": false,
      "stateMutability": "nonpayable",
      "type": "constructor"
    },
    {
      "anonymous": false,
      "inputs": [
        {
          "indexed": false,
          "name": "amount",
          "type": "uint256"
        }
      ],
      "name": "Released",
      "type": "event"
    },
    {
      "anonymous": false,
      "inputs": [],
      "name": "Revoked",
      "type": "event"
    },
    {
      "anonymous": false,
      "inputs": [
        {
          "indexed": true,
          "name": "previousOwner",
          "type": "address"
        }
      ],
      "name": "OwnershipRenounced",
      "type": "event"
    },
    {
      "anonymous": false,
      "inputs": [
        {
          "indexed": true,
          "name": "previousOwner",
          "type": "address"
        },
        {
          "indexed": true,
          "name": "newOwner",
          "type": "address"
        }
      ],
      "name": "OwnershipTransferred",
      "type": "event"
    },
    {
      "constant": false,
      "inputs": [
        {
          "name": "_token",
          "type": "address"
        }
      ],
      "name": "release",
      "outputs": [],
      "payable": false,
      "stateMutability": "nonpayable",
      "type": "function"
    },
    {
      "constant": false,
      "inputs": [
        {
          "name": "_token",
          "type": "address"
        }
      ],
      "name": "revoke",
      "outputs": [],
      "payable": false,
      "stateMutability": "nonpayable",
      "type": "function"
    },
    {
      "constant": true,
      "inputs": [
        {
          "name": "_token",
          "type": "address"
        }
      ],
      "name": "releasableAmount",
      "outputs": [
        {
          "name": "",
          "type": "uint256"
        }
      ],
      "payable": false,
      "stateMutability": "view",
      "type": "function"
    },
    {
      "constant": true,
      "inputs": [
        {
          "name": "_token",
          "type": "address"
        }
      ],
      "name": "vestedAmount",
      "outputs": [
        {
          "name": "",
          "type": "uint256"
        }
      ],
      "payable": false,
      "stateMutability": "view",
      "type": "function"
    }
  ],
  "bytecode": "0x608060405234801561001057600080fd5b5060405160a0806109e18339810160409081528151602083015191830151606084015160809094015160008054600160a060020a0319163317905591939091600160a060020a038516151561006457600080fd5b8183111561007157600080fd5b60018054600160a060020a031916600160a060020a0387161790556005805460ff191682151517905560048290556100b684846401000000006100c5810261074e1704565b600255505050600355506100d8565b818101828110156100d257fe5b92915050565b6108fa806100e76000396000f3006080604052600436106100cf5763ffffffff7c01000000000000000000000000000000000000000000000000000000006000350416630fb5a6b481146100d457806313d033c0146100fb5780631726cbc8146101105780631916558714610131578063384711cc1461015457806338af3eed14610175578063715018a6146101a657806374a8f103146101bb578063872a7810146101dc5780638da5cb5b146102055780639852595c1461021a578063be9a65551461023b578063f2fde38b14610250578063fa01dc0614610271575b600080fd5b3480156100e057600080fd5b506100e9610292565b60408051918252519081900360200190f35b34801561010757600080fd5b506100e9610298565b34801561011c57600080fd5b506100e9600160a060020a036004351661029e565b34801561013d57600080fd5b50610152600160a060020a03600435166102d6565b005b34801561016057600080fd5b506100e9600160a060020a0360043516610382565b34801561018157600080fd5b5061018a6104f2565b60408051600160a060020a039092168252519081900360200190f35b3480156101b257600080fd5b50610152610501565b3480156101c757600080fd5b50610152600160a060020a036004351661056d565b3480156101e857600080fd5b506101f16106d4565b604080519115158252519081900360200190f35b34801561021157600080fd5b5061018a6106dd565b34801561022657600080fd5b506100e9600160a060020a03600435166106ec565b34801561024757600080fd5b506100e96106fe565b34801561025c57600080fd5b50610152600160a060020a0360043516610704565b34801561027d57600080fd5b506101f1600160a060020a0360043516610727565b60045481565b60025481565b600160a060020a0381166000908152600660205260408120546102d0906102c484610382565b9063ffffffff61073c16565b92915050565b60006102e18261029e565b9050600081116102f057600080fd5b600160a060020a038216600090815260066020526040902054610319908263ffffffff61074e16565b600160a060020a0380841660008181526006602052604090209290925560015461034b9291168363ffffffff61075b16565b6040805182815290517ffb81f9b30d73d830c3544b34d827c08142579ee75710b490bab0b3995468c5659181900360200190a15050565b600080600083600160a060020a03166370a08231306040518263ffffffff167c01000000000000000000000000000000000000000000000000000000000281526004018082600160a060020a0316600160a060020a03168152602001915050602060405180830381600087803b1580156103fb57600080fd5b505af115801561040f573d6000803e3d6000fd5b505050506040513d602081101561042557600080fd5b5051600160a060020a03851660009081526006602052604090205490925061045490839063ffffffff61074e16565b905060025442101561046957600092506104eb565b60045460035461047e9163ffffffff61074e16565b421015806104a45750600160a060020a03841660009081526007602052604090205460ff165b156104b1578092506104eb565b6104e86004546104dc6104cf6003544261073c90919063ffffffff16565b849063ffffffff61081316565b9063ffffffff61083c16565b92505b5050919050565b600154600160a060020a031681565b600054600160a060020a0316331461051857600080fd5b60008054604051600160a060020a03909116917ff8df31144d9c2f0f6b59d69b8b98abd5459d07f2742c4df920b25aae33c6482091a26000805473ffffffffffffffffffffffffffffffffffffffff19169055565b6000805481908190600160a060020a0316331461058957600080fd5b60055460ff16151561059a57600080fd5b600160a060020a03841660009081526007602052604090205460ff16156105c057600080fd5b604080517f70a082310000000000000000000000000000000000000000000000000000000081523060048201529051600160a060020a038616916370a082319160248083019260209291908290030181600087803b15801561062157600080fd5b505af1158015610635573d6000803e3d6000fd5b505050506040513d602081101561064b57600080fd5b505192506106588461029e565b915061066a838363ffffffff61073c16565b600160a060020a038086166000818152600760205260408120805460ff19166001179055549293506106a5929091168363ffffffff61075b16565b6040517f44825a4b2df8acb19ce4e1afba9aa850c8b65cdb7942e2078f27d0b0960efee690600090a150505050565b60055460ff1681565b600054600160a060020a031681565b60066020526000908152604090205481565b60035481565b600054600160a060020a0316331461071b57600080fd5b61072481610851565b50565b60076020526000908152604090205460ff1681565b60008282111561074857fe5b50900390565b818101828110156102d057fe5b82600160a060020a031663a9059cbb83836040518363ffffffff167c01000000000000000000000000000000000000000000000000000000000281526004018083600160a060020a0316600160a060020a0316815260200182815260200192505050602060405180830381600087803b1580156107d757600080fd5b505af11580156107eb573d6000803e3d6000fd5b505050506040513d602081101561080157600080fd5b5051151561080e57600080fd5b505050565b6000821515610824575060006102d0565b5081810281838281151561083457fe5b04146102d057fe5b6000818381151561084957fe5b049392505050565b600160a060020a038116151561086657600080fd5b60008054604051600160a060020a03808516939216917f8be0079c531659141344cd1fd0a4f28419497f9722a3daafe3b4186f6b6457e091a36000805473ffffffffffffffffffffffffffffffffffffffff1916600160a060020a03929092169190911790555600a165627a7a7230582014247f9dcadaa755b37a4aef742d549dd73c5c55d4917f660b5a617f6b034e9b0029",
  "source": "/* solium-disable security/no-block-members */\n\npragma solidity ^0.4.24;\n\nimport \"./ERC20Basic.sol\";\nimport \"./SafeERC20.sol\";\nimport \"../../ownership/Ownable.sol\";\nimport \"../../math/SafeMath.sol\";\n\n\n/**\n * @title TokenVesting\n * @dev A token holder contract that can release its token balance gradually like a\n * typical vesting scheme, with a cliff and vesting period. Optionally revocable by the\n * owner.\n */\ncontract TokenVesting is Ownable {\n  using SafeMath for uint256;\n  using SafeERC20 for ERC20Basic;\n\n  event Released(uint256 amount);\n  event Revoked();\n\n  // beneficiary of tokens after they are released\n  address public beneficiary;\n\n  uint256 public cliff;\n  uint256 public start;\n  uint256 public duration;\n\n  bool public revocable;\n\n  mapping (address => uint256) public released;\n  mapping (address => bool) public revoked;\n\n  /**\n   * @dev Creates a vesting contract that vests its balance of any ERC20 token to the\n   * _beneficiary, gradually in a linear fashion until _start + _duration. By then all\n   * of the balance will have vested.\n   * @param _beneficiary address of the beneficiary to whom vested tokens are transferred\n   * @param _cliff duration in seconds of the cliff in which tokens will begin to vest\n   * @param _start the time (as Unix time) at which point vesting starts\n   * @param _duration duration in seconds of the period in which the tokens will vest\n   * @param _revocable whether the vesting is revocable or not\n   */\n  constructor(\n    address _beneficiary,\n    uint256 _start,\n    uint256 _cliff,\n    uint256 _duration,\n    bool _revocable\n  )\n    public\n  {\n    require(_beneficiary != address(0));\n    require(_cliff <= _duration);\n\n    beneficiary = _beneficiary;\n    revocable = _revocable;\n    duration = _duration;\n    cliff = _start.add(_cliff);\n    start = _start;\n  }\n\n  /**\n   * @notice Transfers vested tokens to beneficiary.\n   * @param _token ERC20 token which is being vested\n   */\n  function release(ERC20Basic _token) public {\n    uint256 unreleased = releasableAmount(_token);\n\n    require(unreleased > 0);\n\n    released[_token] = released[_token].add(unreleased);\n\n    _token.safeTransfer(beneficiary, unreleased);\n\n    emit Released(unreleased);\n  }\n\n  /**\n   * @notice Allows the owner to revoke the vesting. Tokens already vested\n   * remain in the contract, the rest are returned to the owner.\n   * @param _token ERC20 token which is being vested\n   */\n  function revoke(ERC20Basic _token) public onlyOwner {\n    require(revocable);\n    require(!revoked[_token]);\n\n    uint256 balance = _token.balanceOf(address(this));\n\n    uint256 unreleased = releasableAmount(_token);\n    uint256 refund = balance.sub(unreleased);\n\n    revoked[_token] = true;\n\n    _token.safeTransfer(owner, refund);\n\n    emit Revoked();\n  }\n\n  /**\n   * @dev Calculates the amount that has already vested but hasn't been released yet.\n   * @param _token ERC20 token which is being vested\n   */\n  function releasableAmount(ERC20Basic _token) public view returns (uint256) {\n    return vestedAmount(_token).sub(released[_token]);\n  }\n\n  /**\n   * @dev Calculates the amount that has already vested.\n   * @param _token ERC20 token which is being vested\n   */\n  function vestedAmount(ERC20Basic _token) public view returns (uint256) {\n    uint256 currentBalance = _token.balanceOf(address(this));\n    uint256 totalBalance = currentBalance.add(released[_token]);\n\n    if (block.timestamp < cliff) {\n      return 0;\n    } else if (block.timestamp >= start.add(duration) || revoked[_token]) {\n      return totalBalance;\n    } else {\n      return totalBalance.mul(block.timestamp.sub(start)).div(duration);\n    }\n  }\n}\n",
  "sourcePath": "openzeppelin-solidity/contracts/token/ERC20/TokenVesting.sol",
  "compiler": {
    "name": "solc",
    "version": "0.4.24+commit.e67f0147.Emscripten.clang"
  },
  "schemaVersion": "2.0.1",
  "updatedAt": "2018-09-06T19:26:20.576Z"
}