{
  "contractName": "TokenTimelockEscrowImpl",
  "abi": [
    {
      "constant": false,
      "inputs": [
        {
          "name": "_contractAddr",
          "type": "address"
        }
      ],
      "name": "reclaimContract",
      "outputs": [],
      "payable": false,
      "stateMutability": "nonpayable",
      "type": "function"
    },
    {
      "constant": false,
      "inputs": [
        {
          "name": "_payee",
          "type": "address"
        },
        {
          "name": "_amount",
          "type": "uint256"
        }
      ],
      "name": "deposit",
      "outputs": [],
      "payable": false,
      "stateMutability": "nonpayable",
      "type": "function"
    },
    {
      "constant": false,
      "inputs": [
        {
          "name": "_payee",
          "type": "address"
        }
      ],
      "name": "withdraw",
      "outputs": [],
      "payable": false,
      "stateMutability": "nonpayable",
      "type": "function"
    },
    {
      "constant": true,
      "inputs": [
        {
          "name": "_payee",
          "type": "address"
        }
      ],
      "name": "withdrawalAllowed",
      "outputs": [
        {
          "name": "",
          "type": "bool"
        }
      ],
      "payable": false,
      "stateMutability": "view",
      "type": "function"
    },
    {
      "constant": false,
      "inputs": [],
      "name": "renounceOwnership",
      "outputs": [],
      "payable": false,
      "stateMutability": "nonpayable",
      "type": "function"
    },
    {
      "constant": true,
      "inputs": [],
      "name": "owner",
      "outputs": [
        {
          "name": "",
          "type": "address"
        }
      ],
      "payable": false,
      "stateMutability": "view",
      "type": "function"
    },
    {
      "constant": false,
      "inputs": [],
      "name": "reclaimEther",
      "outputs": [],
      "payable": false,
      "stateMutability": "nonpayable",
      "type": "function"
    },
    {
      "constant": true,
      "inputs": [],
      "name": "releaseTime",
      "outputs": [
        {
          "name": "",
          "type": "uint256"
        }
      ],
      "payable": false,
      "stateMutability": "view",
      "type": "function"
    },
    {
      "constant": true,
      "inputs": [
        {
          "name": "_payee",
          "type": "address"
        }
      ],
      "name": "depositsOf",
      "outputs": [
        {
          "name": "",
          "type": "uint256"
        }
      ],
      "payable": false,
      "stateMutability": "view",
      "type": "function"
    },
    {
      "constant": false,
      "inputs": [
        {
          "name": "_newOwner",
          "type": "address"
        }
      ],
      "name": "transferOwnership",
      "outputs": [],
      "payable": false,
      "stateMutability": "nonpayable",
      "type": "function"
    },
    {
      "constant": true,
      "inputs": [],
      "name": "token",
      "outputs": [
        {
          "name": "",
          "type": "address"
        }
      ],
      "payable": false,
      "stateMutability": "view",
      "type": "function"
    },
    {
      "inputs": [
        {
          "name": "_token",
          "type": "address"
        },
        {
          "name": "_releaseTime",
          "type": "uint256"
        }
      ],
      "payable": false,
      "stateMutability": "nonpayable",
      "type": "constructor"
    },
    {
      "payable": false,
      "stateMutability": "nonpayable",
      "type": "fallback"
    },
    {
      "anonymous": false,
      "inputs": [
        {
          "indexed": true,
          "name": "payee",
          "type": "address"
        },
        {
          "indexed": false,
          "name": "amount",
          "type": "uint256"
        }
      ],
      "name": "Deposited",
      "type": "event"
    },
    {
      "anonymous": false,
      "inputs": [
        {
          "indexed": true,
          "name": "payee",
          "type": "address"
        },
        {
          "indexed": false,
          "name": "amount",
          "type": "uint256"
        }
      ],
      "name": "Withdrawn",
      "type": "event"
    },
    {
      "anonymous": false,
      "inputs": [
        {
          "indexed": true,
          "name": "previousOwner",
          "type": "address"
        }
      ],
      "name": "OwnershipRenounced",
      "type": "event"
    },
    {
      "anonymous": false,
      "inputs": [
        {
          "indexed": true,
          "name": "previousOwner",
          "type": "address"
        },
        {
          "indexed": true,
          "name": "newOwner",
          "type": "address"
        }
      ],
      "name": "OwnershipTransferred",
      "type": "event"
    }
  ],
  "bytecode": "0x608060405234801561001057600080fd5b50604051604080610b5083398101604052805160209091015160008054600160a060020a031916331790558082341561004857600080fd5b600160a060020a03811615156100bf57604080517f08c379a000000000000000000000000000000000000000000000000000000000815260206004820181905260248201527f546f6b656e20616464726573732073686f756c64206e6f74206265203078302e604482015290519081900360640190fd5b60028054600160a060020a031916600160a060020a039290921691909117905542811161017357604080517f08c379a000000000000000000000000000000000000000000000000000000000815260206004820152602560248201527f52656c656173652074696d652073686f756c6420626520696e2074686520667560448201527f747572652e000000000000000000000000000000000000000000000000000000606482015290519081900360840190fd5b60035550506109c9806101876000396000f3006080604052600436106100ae5763ffffffff7c01000000000000000000000000000000000000000000000000000000006000350416632aed7f3f81146100bd57806347e7ef24146100e057806351cff8d914610104578063685ca19414610125578063715018a61461015a5780638da5cb5b1461016f5780639f727c27146101a0578063b91d4001146101b5578063e3a9db1a146101dc578063f2fde38b146101fd578063fc0c546a1461021e575b3480156100ba57600080fd5b50005b3480156100c957600080fd5b506100de600160a060020a0360043516610233565b005b3480156100ec57600080fd5b506100de600160a060020a03600435166024356102cd565b34801561011057600080fd5b506100de600160a060020a03600435166104c3565b34801561013157600080fd5b50610146600160a060020a0360043516610545565b604080519115158252519081900360200190f35b34801561016657600080fd5b506100de61054f565b34801561017b57600080fd5b506101846105bb565b60408051600160a060020a039092168252519081900360200190f35b3480156101ac57600080fd5b506100de6105ca565b3480156101c157600080fd5b506101ca61061c565b60408051918252519081900360200190f35b3480156101e857600080fd5b506101ca600160a060020a0360043516610622565b34801561020957600080fd5b506100de600160a060020a036004351661063d565b34801561022a57600080fd5b5061018461065d565b60008054600160a060020a0316331461024b57600080fd5b5060008054604080517ff2fde38b000000000000000000000000000000000000000000000000000000008152600160a060020a039283166004820152905184939284169263f2fde38b926024808201939182900301818387803b1580156102b157600080fd5b505af11580156102c5573d6000803e3d6000fd5b505050505050565b600054600160a060020a031633146102e457600080fd5b600160a060020a038216151561038157604080517f08c379a000000000000000000000000000000000000000000000000000000000815260206004820152602660248201527f44657374696e6174696f6e20616464726573732073686f756c64206e6f74206260448201527f65203078302e0000000000000000000000000000000000000000000000000000606482015290519081900360840190fd5b600160a060020a03821630141561041f57604080517f08c379a000000000000000000000000000000000000000000000000000000000815260206004820152602d60248201527f4465706f736974732073686f756c64206e6f74206265206d61646520746f207460448201527f68697320636f6e74726163742e00000000000000000000000000000000000000606482015290519081900360840190fd5b600160a060020a038216600090815260016020526040902054610448908263ffffffff61066c16565b600160a060020a038084166000908152600160205260408120929092559054600254610480929081169116308463ffffffff61067f16565b604080518281529051600160a060020a038416917f2da466a7b24304f47e87fa2e1e5a81b9831ce54fec19055ce277ca2f39ba42c4919081900360200190a25050565b6104cc81610545565b151561053957604080517f08c379a000000000000000000000000000000000000000000000000000000000815260206004820152601a60248201527f5769746864726177616c206973206e6f7420616c6c6f7765642e000000000000604482015290519081900360640190fd5b61054281610730565b50565b5060035442101590565b600054600160a060020a0316331461056657600080fd5b60008054604051600160a060020a03909116917ff8df31144d9c2f0f6b59d69b8b98abd5459d07f2742c4df920b25aae33c6482091a26000805473ffffffffffffffffffffffffffffffffffffffff19169055565b600054600160a060020a031681565b600054600160a060020a031633146105e157600080fd5b60008054604051600160a060020a0390911691303180156108fc02929091818181858888f19350505050158015610542573d6000803e3d6000fd5b60035481565b600160a060020a031660009081526001602052604090205490565b600054600160a060020a0316331461065457600080fd5b61054281610868565b600254600160a060020a031681565b8181018281101561067957fe5b92915050565b604080517f23b872dd000000000000000000000000000000000000000000000000000000008152600160a060020a0385811660048301528481166024830152604482018490529151918616916323b872dd916064808201926020929091908290030181600087803b1580156106f357600080fd5b505af1158015610707573d6000803e3d6000fd5b505050506040513d602081101561071d57600080fd5b5051151561072a57600080fd5b50505050565b60008054600160a060020a0316331461074857600080fd5b50600160a060020a0380821660009081526001602090815260408083205460025482517f70a082310000000000000000000000000000000000000000000000000000000081523060048201529251919586959116936370a08231936024808201949293918390030190829087803b1580156107c257600080fd5b505af11580156107d6573d6000803e3d6000fd5b505050506040513d60208110156107ec57600080fd5b505110156107f657fe5b600160a060020a038083166000908152600160205260408120556002546108259116838363ffffffff6108e516565b604080518281529051600160a060020a038416917f7084f5476618d8e60b11ef0d7d3f06914655adb8793e28ff7f018d4c76d505d5919081900360200190a25050565b600160a060020a038116151561087d57600080fd5b60008054604051600160a060020a03808516939216917f8be0079c531659141344cd1fd0a4f28419497f9722a3daafe3b4186f6b6457e091a36000805473ffffffffffffffffffffffffffffffffffffffff1916600160a060020a0392909216919091179055565b82600160a060020a031663a9059cbb83836040518363ffffffff167c01000000000000000000000000000000000000000000000000000000000281526004018083600160a060020a0316600160a060020a0316815260200182815260200192505050602060405180830381600087803b15801561096157600080fd5b505af1158015610975573d6000803e3d6000fd5b505050506040513d602081101561098b57600080fd5b5051151561099857600080fd5b5050505600a165627a7a72305820a6a2e4cf795e3d05cb1355f5110b8a27b5045f1b299965146f194de70c0c73400029",
  "source": "pragma solidity 0.4.24;\n\nimport \"openzeppelin-solidity/contracts/ownership/HasNoEther.sol\";\nimport \"openzeppelin-solidity/contracts/ownership/HasNoContracts.sol\";\nimport \"./payment/TokenTimelockEscrow.sol\";\n\n\n/// @title TokenTimelockEscrowImpl\ncontract TokenTimelockEscrowImpl is HasNoEther, HasNoContracts, TokenTimelockEscrow {\n\n  constructor(ERC20 _token, uint256 _releaseTime)\n    public\n    TokenEscrow(_token)\n    TokenTimelockEscrow(_releaseTime)\n  {\n    // constructor\n  }\n}\n",
  "sourcePath": "/Users/krebernisak/Documents/workspace/work/runningbeta/weinorth/tolar/contracts/TokenTimelockEscrowImpl.sol",
  "compiler": {
    "name": "solc",
    "version": "0.4.24+commit.e67f0147.Emscripten.clang"
  },
  "schemaVersion": "2.0.1",
  "updatedAt": "2018-09-12T13:47:04.819Z"
}