{
  "contractName": "TokenTimelockEscrowMock",
  "abi": [
    {
      "constant": false,
      "inputs": [
        {
          "name": "_payee",
          "type": "address"
        },
        {
          "name": "_amount",
          "type": "uint256"
        }
      ],
      "name": "deposit",
      "outputs": [],
      "payable": false,
      "stateMutability": "nonpayable",
      "type": "function"
    },
    {
      "constant": false,
      "inputs": [
        {
          "name": "_payee",
          "type": "address"
        }
      ],
      "name": "withdraw",
      "outputs": [],
      "payable": false,
      "stateMutability": "nonpayable",
      "type": "function"
    },
    {
      "constant": true,
      "inputs": [
        {
          "name": "_payee",
          "type": "address"
        }
      ],
      "name": "withdrawalAllowed",
      "outputs": [
        {
          "name": "",
          "type": "bool"
        }
      ],
      "payable": false,
      "stateMutability": "view",
      "type": "function"
    },
    {
      "constant": false,
      "inputs": [],
      "name": "renounceOwnership",
      "outputs": [],
      "payable": false,
      "stateMutability": "nonpayable",
      "type": "function"
    },
    {
      "constant": true,
      "inputs": [],
      "name": "owner",
      "outputs": [
        {
          "name": "",
          "type": "address"
        }
      ],
      "payable": false,
      "stateMutability": "view",
      "type": "function"
    },
    {
      "constant": true,
      "inputs": [],
      "name": "releaseTime",
      "outputs": [
        {
          "name": "",
          "type": "uint256"
        }
      ],
      "payable": false,
      "stateMutability": "view",
      "type": "function"
    },
    {
      "constant": true,
      "inputs": [
        {
          "name": "_payee",
          "type": "address"
        }
      ],
      "name": "depositsOf",
      "outputs": [
        {
          "name": "",
          "type": "uint256"
        }
      ],
      "payable": false,
      "stateMutability": "view",
      "type": "function"
    },
    {
      "constant": false,
      "inputs": [
        {
          "name": "_newOwner",
          "type": "address"
        }
      ],
      "name": "transferOwnership",
      "outputs": [],
      "payable": false,
      "stateMutability": "nonpayable",
      "type": "function"
    },
    {
      "constant": true,
      "inputs": [],
      "name": "token",
      "outputs": [
        {
          "name": "",
          "type": "address"
        }
      ],
      "payable": false,
      "stateMutability": "view",
      "type": "function"
    },
    {
      "inputs": [
        {
          "name": "_token",
          "type": "address"
        },
        {
          "name": "_releaseTime",
          "type": "uint256"
        }
      ],
      "payable": false,
      "stateMutability": "nonpayable",
      "type": "constructor"
    },
    {
      "anonymous": false,
      "inputs": [
        {
          "indexed": true,
          "name": "payee",
          "type": "address"
        },
        {
          "indexed": false,
          "name": "amount",
          "type": "uint256"
        }
      ],
      "name": "Deposited",
      "type": "event"
    },
    {
      "anonymous": false,
      "inputs": [
        {
          "indexed": true,
          "name": "payee",
          "type": "address"
        },
        {
          "indexed": false,
          "name": "amount",
          "type": "uint256"
        }
      ],
      "name": "Withdrawn",
      "type": "event"
    },
    {
      "anonymous": false,
      "inputs": [
        {
          "indexed": true,
          "name": "previousOwner",
          "type": "address"
        }
      ],
      "name": "OwnershipRenounced",
      "type": "event"
    },
    {
      "anonymous": false,
      "inputs": [
        {
          "indexed": true,
          "name": "previousOwner",
          "type": "address"
        },
        {
          "indexed": true,
          "name": "newOwner",
          "type": "address"
        }
      ],
      "name": "OwnershipTransferred",
      "type": "event"
    }
  ],
  "bytecode": "0x608060405234801561001057600080fd5b50604051604080610a0383398101604052805160209091015160008054600160a060020a031916331790558082600160a060020a03811615156100b457604080517f08c379a000000000000000000000000000000000000000000000000000000000815260206004820181905260248201527f546f6b656e20616464726573732073686f756c64206e6f74206265203078302e604482015290519081900360640190fd5b60028054600160a060020a031916600160a060020a039290921691909117905542811161016857604080517f08c379a000000000000000000000000000000000000000000000000000000000815260206004820152602560248201527f52656c656173652074696d652073686f756c6420626520696e2074686520667560448201527f747572652e000000000000000000000000000000000000000000000000000000606482015290519081900360840190fd5b60035550506108878061017c6000396000f3006080604052600436106100985763ffffffff7c010000000000000000000000000000000000000000000000000000000060003504166347e7ef24811461009d57806351cff8d9146100c3578063685ca194146100e4578063715018a6146101195780638da5cb5b1461012e578063b91d40011461015f578063e3a9db1a14610186578063f2fde38b146101a7578063fc0c546a146101c8575b600080fd5b3480156100a957600080fd5b506100c1600160a060020a03600435166024356101dd565b005b3480156100cf57600080fd5b506100c1600160a060020a03600435166103d3565b3480156100f057600080fd5b50610105600160a060020a0360043516610455565b604080519115158252519081900360200190f35b34801561012557600080fd5b506100c161045f565b34801561013a57600080fd5b506101436104cb565b60408051600160a060020a039092168252519081900360200190f35b34801561016b57600080fd5b506101746104da565b60408051918252519081900360200190f35b34801561019257600080fd5b50610174600160a060020a03600435166104e0565b3480156101b357600080fd5b506100c1600160a060020a03600435166104fb565b3480156101d457600080fd5b5061014361051b565b600054600160a060020a031633146101f457600080fd5b600160a060020a038216151561029157604080517f08c379a000000000000000000000000000000000000000000000000000000000815260206004820152602660248201527f44657374696e6174696f6e20616464726573732073686f756c64206e6f74206260448201527f65203078302e0000000000000000000000000000000000000000000000000000606482015290519081900360840190fd5b600160a060020a03821630141561032f57604080517f08c379a000000000000000000000000000000000000000000000000000000000815260206004820152602d60248201527f4465706f736974732073686f756c64206e6f74206265206d61646520746f207460448201527f68697320636f6e74726163742e00000000000000000000000000000000000000606482015290519081900360840190fd5b600160a060020a038216600090815260016020526040902054610358908263ffffffff61052a16565b600160a060020a038084166000908152600160205260408120929092559054600254610390929081169116308463ffffffff61053d16565b604080518281529051600160a060020a038416917f2da466a7b24304f47e87fa2e1e5a81b9831ce54fec19055ce277ca2f39ba42c4919081900360200190a25050565b6103dc81610455565b151561044957604080517f08c379a000000000000000000000000000000000000000000000000000000000815260206004820152601a60248201527f5769746864726177616c206973206e6f7420616c6c6f7765642e000000000000604482015290519081900360640190fd5b610452816105ee565b50565b5060035442101590565b600054600160a060020a0316331461047657600080fd5b60008054604051600160a060020a03909116917ff8df31144d9c2f0f6b59d69b8b98abd5459d07f2742c4df920b25aae33c6482091a26000805473ffffffffffffffffffffffffffffffffffffffff19169055565b600054600160a060020a031681565b60035481565b600160a060020a031660009081526001602052604090205490565b600054600160a060020a0316331461051257600080fd5b61045281610726565b600254600160a060020a031681565b8181018281101561053757fe5b92915050565b604080517f23b872dd000000000000000000000000000000000000000000000000000000008152600160a060020a0385811660048301528481166024830152604482018490529151918616916323b872dd916064808201926020929091908290030181600087803b1580156105b157600080fd5b505af11580156105c5573d6000803e3d6000fd5b505050506040513d60208110156105db57600080fd5b505115156105e857600080fd5b50505050565b60008054600160a060020a0316331461060657600080fd5b50600160a060020a0380821660009081526001602090815260408083205460025482517f70a082310000000000000000000000000000000000000000000000000000000081523060048201529251919586959116936370a08231936024808201949293918390030190829087803b15801561068057600080fd5b505af1158015610694573d6000803e3d6000fd5b505050506040513d60208110156106aa57600080fd5b505110156106b457fe5b600160a060020a038083166000908152600160205260408120556002546106e39116838363ffffffff6107a316565b604080518281529051600160a060020a038416917f7084f5476618d8e60b11ef0d7d3f06914655adb8793e28ff7f018d4c76d505d5919081900360200190a25050565b600160a060020a038116151561073b57600080fd5b60008054604051600160a060020a03808516939216917f8be0079c531659141344cd1fd0a4f28419497f9722a3daafe3b4186f6b6457e091a36000805473ffffffffffffffffffffffffffffffffffffffff1916600160a060020a0392909216919091179055565b82600160a060020a031663a9059cbb83836040518363ffffffff167c01000000000000000000000000000000000000000000000000000000000281526004018083600160a060020a0316600160a060020a0316815260200182815260200192505050602060405180830381600087803b15801561081f57600080fd5b505af1158015610833573d6000803e3d6000fd5b505050506040513d602081101561084957600080fd5b5051151561085657600080fd5b5050505600a165627a7a72305820d9961eb674306d739ea2d996256c7a945861379f5b349d11fb9b5bc37e98a6990029",
  "source": "pragma solidity 0.4.24;\n\nimport \"../payment/TokenTimelockEscrow.sol\";\n\n\n/// @title TokenTimelockEscrowMock\ncontract TokenTimelockEscrowMock is TokenTimelockEscrow {\n\n  constructor(ERC20 _token, uint256 _releaseTime)\n    public\n    TokenEscrow(_token)\n    TokenTimelockEscrow(_releaseTime)\n  {\n    // constructor\n  }\n}\n",
  "sourcePath": "/Users/krebernisak/Documents/workspace/work/runningbeta/weinorth/tolar/contracts/mocks/TokenTimelockEscrowMock.sol",
  "compiler": {
    "name": "solc",
    "version": "0.4.24+commit.e67f0147.Emscripten.clang"
  },
  "schemaVersion": "2.0.1",
  "updatedAt": "2018-09-12T13:47:04.853Z"
}