{
  "contractName": "TokenCrowdsale",
  "abi": [
    {
      "constant": true,
      "inputs": [],
      "name": "tokensDelivered",
      "outputs": [
        {
          "name": "",
          "type": "uint256"
        }
      ],
      "payable": false,
      "stateMutability": "view",
      "type": "function"
    },
    {
      "constant": true,
      "inputs": [],
      "name": "hasClosed",
      "outputs": [
        {
          "name": "",
          "type": "bool"
        }
      ],
      "payable": false,
      "stateMutability": "view",
      "type": "function"
    },
    {
      "constant": false,
      "inputs": [
        {
          "name": "_token",
          "type": "address"
        }
      ],
      "name": "reclaimToken",
      "outputs": [],
      "payable": false,
      "stateMutability": "nonpayable",
      "type": "function"
    },
    {
      "constant": true,
      "inputs": [
        {
          "name": "",
          "type": "address"
        }
      ],
      "name": "balances",
      "outputs": [
        {
          "name": "",
          "type": "uint256"
        }
      ],
      "payable": false,
      "stateMutability": "view",
      "type": "function"
    },
    {
      "constant": false,
      "inputs": [
        {
          "name": "_contractAddr",
          "type": "address"
        }
      ],
      "name": "reclaimContract",
      "outputs": [],
      "payable": false,
      "stateMutability": "nonpayable",
      "type": "function"
    },
    {
      "constant": true,
      "inputs": [],
      "name": "rate",
      "outputs": [
        {
          "name": "",
          "type": "uint256"
        }
      ],
      "payable": false,
      "stateMutability": "view",
      "type": "function"
    },
    {
      "constant": true,
      "inputs": [],
      "name": "cap",
      "outputs": [
        {
          "name": "",
          "type": "uint256"
        }
      ],
      "payable": false,
      "stateMutability": "view",
      "type": "function"
    },
    {
      "constant": true,
      "inputs": [],
      "name": "weiRaised",
      "outputs": [
        {
          "name": "",
          "type": "uint256"
        }
      ],
      "payable": false,
      "stateMutability": "view",
      "type": "function"
    },
    {
      "constant": true,
      "inputs": [
        {
          "name": "",
          "type": "address"
        }
      ],
      "name": "contributions",
      "outputs": [
        {
          "name": "",
          "type": "uint256"
        }
      ],
      "payable": false,
      "stateMutability": "view",
      "type": "function"
    },
    {
      "constant": true,
      "inputs": [],
      "name": "withdrawTime",
      "outputs": [
        {
          "name": "",
          "type": "uint256"
        }
      ],
      "payable": false,
      "stateMutability": "view",
      "type": "function"
    },
    {
      "constant": true,
      "inputs": [],
      "name": "closingTime",
      "outputs": [
        {
          "name": "",
          "type": "uint256"
        }
      ],
      "payable": false,
      "stateMutability": "view",
      "type": "function"
    },
    {
      "constant": true,
      "inputs": [],
      "name": "capReached",
      "outputs": [
        {
          "name": "",
          "type": "bool"
        }
      ],
      "payable": false,
      "stateMutability": "view",
      "type": "function"
    },
    {
      "constant": true,
      "inputs": [],
      "name": "tokensSold",
      "outputs": [
        {
          "name": "",
          "type": "uint256"
        }
      ],
      "payable": false,
      "stateMutability": "view",
      "type": "function"
    },
    {
      "constant": true,
      "inputs": [],
      "name": "wallet",
      "outputs": [
        {
          "name": "",
          "type": "address"
        }
      ],
      "payable": false,
      "stateMutability": "view",
      "type": "function"
    },
    {
      "constant": true,
      "inputs": [
        {
          "name": "",
          "type": "address"
        }
      ],
      "name": "caps",
      "outputs": [
        {
          "name": "",
          "type": "uint256"
        }
      ],
      "payable": false,
      "stateMutability": "view",
      "type": "function"
    },
    {
      "constant": false,
      "inputs": [],
      "name": "renounceOwnership",
      "outputs": [],
      "payable": false,
      "stateMutability": "nonpayable",
      "type": "function"
    },
    {
      "constant": true,
      "inputs": [
        {
          "name": "_beneficiary",
          "type": "address"
        }
      ],
      "name": "getUserCap",
      "outputs": [
        {
          "name": "",
          "type": "uint256"
        }
      ],
      "payable": false,
      "stateMutability": "view",
      "type": "function"
    },
    {
      "constant": true,
      "inputs": [],
      "name": "owner",
      "outputs": [
        {
          "name": "",
          "type": "address"
        }
      ],
      "payable": false,
      "stateMutability": "view",
      "type": "function"
    },
    {
      "constant": false,
      "inputs": [
        {
          "name": "_beneficiaries",
          "type": "address[]"
        },
        {
          "name": "_cap",
          "type": "uint256"
        }
      ],
      "name": "setGroupCap",
      "outputs": [],
      "payable": false,
      "stateMutability": "nonpayable",
      "type": "function"
    },
    {
      "constant": true,
      "inputs": [],
      "name": "openingTime",
      "outputs": [
        {
          "name": "",
          "type": "uint256"
        }
      ],
      "payable": false,
      "stateMutability": "view",
      "type": "function"
    },
    {
      "constant": true,
      "inputs": [
        {
          "name": "_beneficiary",
          "type": "address"
        }
      ],
      "name": "getUserContribution",
      "outputs": [
        {
          "name": "",
          "type": "uint256"
        }
      ],
      "payable": false,
      "stateMutability": "view",
      "type": "function"
    },
    {
      "constant": true,
      "inputs": [],
      "name": "remainingTokens",
      "outputs": [
        {
          "name": "",
          "type": "uint256"
        }
      ],
      "payable": false,
      "stateMutability": "view",
      "type": "function"
    },
    {
      "constant": true,
      "inputs": [],
      "name": "tokenWallet",
      "outputs": [
        {
          "name": "",
          "type": "address"
        }
      ],
      "payable": false,
      "stateMutability": "view",
      "type": "function"
    },
    {
      "constant": true,
      "inputs": [
        {
          "name": "_from",
          "type": "address"
        },
        {
          "name": "_value",
          "type": "uint256"
        },
        {
          "name": "_data",
          "type": "bytes"
        }
      ],
      "name": "tokenFallback",
      "outputs": [],
      "payable": false,
      "stateMutability": "pure",
      "type": "function"
    },
    {
      "constant": false,
      "inputs": [
        {
          "name": "_beneficiary",
          "type": "address"
        },
        {
          "name": "_cap",
          "type": "uint256"
        }
      ],
      "name": "setUserCap",
      "outputs": [],
      "payable": false,
      "stateMutability": "nonpayable",
      "type": "function"
    },
    {
      "constant": false,
      "inputs": [
        {
          "name": "_beneficiary",
          "type": "address"
        }
      ],
      "name": "buyTokens",
      "outputs": [],
      "payable": true,
      "stateMutability": "payable",
      "type": "function"
    },
    {
      "constant": false,
      "inputs": [
        {
          "name": "_newOwner",
          "type": "address"
        }
      ],
      "name": "transferOwnership",
      "outputs": [],
      "payable": false,
      "stateMutability": "nonpayable",
      "type": "function"
    },
    {
      "constant": true,
      "inputs": [],
      "name": "token",
      "outputs": [
        {
          "name": "",
          "type": "address"
        }
      ],
      "payable": false,
      "stateMutability": "view",
      "type": "function"
    },
    {
      "inputs": [
        {
          "name": "_rate",
          "type": "uint256"
        },
        {
          "name": "_wallet",
          "type": "address"
        },
        {
          "name": "_token",
          "type": "address"
        },
        {
          "name": "_tokenWallet",
          "type": "address"
        },
        {
          "name": "_cap",
          "type": "uint256"
        },
        {
          "name": "_openingTime",
          "type": "uint256"
        },
        {
          "name": "_closingTime",
          "type": "uint256"
        },
        {
          "name": "_withdrawTime",
          "type": "uint256"
        }
      ],
      "payable": false,
      "stateMutability": "nonpayable",
      "type": "constructor"
    },
    {
      "payable": true,
      "stateMutability": "payable",
      "type": "fallback"
    },
    {
      "anonymous": false,
      "inputs": [
        {
          "indexed": true,
          "name": "purchaser",
          "type": "address"
        },
        {
          "indexed": true,
          "name": "beneficiary",
          "type": "address"
        },
        {
          "indexed": false,
          "name": "value",
          "type": "uint256"
        },
        {
          "indexed": false,
          "name": "amount",
          "type": "uint256"
        }
      ],
      "name": "TokenPurchase",
      "type": "event"
    },
    {
      "anonymous": false,
      "inputs": [
        {
          "indexed": true,
          "name": "previousOwner",
          "type": "address"
        }
      ],
      "name": "OwnershipRenounced",
      "type": "event"
    },
    {
      "anonymous": false,
      "inputs": [
        {
          "indexed": true,
          "name": "previousOwner",
          "type": "address"
        },
        {
          "indexed": true,
          "name": "newOwner",
          "type": "address"
        }
      ],
      "name": "OwnershipTransferred",
      "type": "event"
    },
    {
      "constant": true,
      "inputs": [],
      "name": "hasEnded",
      "outputs": [
        {
          "name": "",
          "type": "bool"
        }
      ],
      "payable": false,
      "stateMutability": "view",
      "type": "function"
    },
    {
      "constant": false,
      "inputs": [
        {
          "name": "_beneficiary",
          "type": "address"
        }
      ],
      "name": "withdrawTokens",
      "outputs": [],
      "payable": false,
      "stateMutability": "nonpayable",
      "type": "function"
    },
    {
      "constant": false,
      "inputs": [
        {
          "name": "_beneficiaries",
          "type": "address[]"
        }
      ],
      "name": "withdrawTokens",
      "outputs": [],
      "payable": false,
      "stateMutability": "nonpayable",
      "type": "function"
    },
    {
      "constant": false,
      "inputs": [],
      "name": "withdrawTokens",
      "outputs": [],
      "payable": false,
      "stateMutability": "nonpayable",
      "type": "function"
    }
  ],
  "bytecode": "0x608060405234801561001057600080fd5b506040516101008061127883398101604090815281516020830151918301516060840151608085015160a086015160c087015160e09097015160008054600160a060020a03191633178155959794959394929391929185908590859085908c908c908c90831161007f57600080fd5b600160a060020a038216151561009457600080fd5b600160a060020a03811615156100a957600080fd5b60039290925560028054600160a060020a03928316600160a060020a03199182161790915560018054929093169116179055428210156100e857600080fd5b818110156100f557600080fd5b6005919091556006556000811161010b57600080fd5b600755600160a060020a038116151561012357600080fd5b600b8054600160a060020a031916600160a060020a0392909216919091179055818110156101d857604080517f08c379a000000000000000000000000000000000000000000000000000000000815260206004820152602f60248201527f5769746864726177616c732073686f756c64206f70656e20616674657220637260448201527f6f776473616c6520636c6f7365732e0000000000000000000000000000000000606482015290519081900360840190fd5b600c5550505050505050611087806101f16000396000f3006080604052600436106101955763ffffffff7c0100000000000000000000000000000000000000000000000000000000600035041663095272aa81146101a05780631515bc2b146101c757806317ffc320146101f057806327e235e3146102115780632aed7f3f146102325780632c4e722e14610253578063355274ea146102685780634042b66f1461027d57806342e94c901461029257806345cb3dde146102b357806349df728c146102c85780634b6753bc146102e95780634f935945146102fe578063518ab2a814610313578063521eb273146103285780635ecb16cd1461035957806366d97b21146103ae578063715018a6146103cf5780638b58c64c146103e45780638d8f2adb146104055780638da5cb5b1461041a578063a31f61fc1461042f578063b7a8807c14610453578063bb8b2b4714610468578063bf58390314610489578063bff99c6c1461049e578063c0ee0b8a146104b3578063c3143fe5146104e4578063ec8ac4d814610508578063ecb70fb71461051c578063f2fde38b14610531578063fc0c546a14610552575b61019e33610567565b005b3480156101ac57600080fd5b506101b5610609565b60408051918252519081900360200190f35b3480156101d357600080fd5b506101dc61060f565b604080519115158252519081900360200190f35b3480156101fc57600080fd5b5061019e600160a060020a0360043516610617565b34801561021d57600080fd5b506101b5600160a060020a03600435166106e3565b34801561023e57600080fd5b5061019e600160a060020a03600435166106f5565b34801561025f57600080fd5b506101b561078f565b34801561027457600080fd5b506101b5610795565b34801561028957600080fd5b506101b561079b565b34801561029e57600080fd5b506101b5600160a060020a03600435166107a1565b3480156102bf57600080fd5b506101b56107b3565b3480156102d457600080fd5b5061019e600160a060020a03600435166107b9565b3480156102f557600080fd5b506101b56107c5565b34801561030a57600080fd5b506101dc6107cb565b34801561031f57600080fd5b506101b56107d6565b34801561033457600080fd5b5061033d6107dc565b60408051600160a060020a039092168252519081900360200190f35b34801561036557600080fd5b506040805160206004803580820135838102808601850190965280855261019e953695939460249493850192918291850190849080828437509497506107eb9650505050505050565b3480156103ba57600080fd5b506101b5600160a060020a036004351661082b565b3480156103db57600080fd5b5061019e61083d565b3480156103f057600080fd5b506101b5600160a060020a03600435166108a9565b34801561041157600080fd5b5061019e6108c4565b34801561042657600080fd5b5061033d6108cf565b34801561043b57600080fd5b5061019e6024600480358281019291013590356108de565b34801561045f57600080fd5b506101b5610944565b34801561047457600080fd5b506101b5600160a060020a036004351661094a565b34801561049557600080fd5b506101b5610965565b3480156104aa57600080fd5b5061033d610a0a565b3480156104bf57600080fd5b5061019e60048035600160a060020a0316906024803591604435918201910135610a19565b3480156104f057600080fd5b5061019e600160a060020a0360043516602435610a1e565b61019e600160a060020a0360043516610567565b34801561052857600080fd5b506101dc610a51565b34801561053d57600080fd5b5061019e600160a060020a0360043516610a6e565b34801561055e57600080fd5b5061033d610a8e565b3460006105748383610a9d565b61057d82610ae7565b600454909150610593908363ffffffff610b0416565b6004556105a08382610b11565b60408051838152602081018390528151600160a060020a0386169233927f623b3804fa71d67900d064613da8f94b9617215ee90799290593e1745087ad18929081900390910190a36105f28383610b35565b6105fa610b88565b61060483836106df565b505050565b600e5481565b600654421190565b60008054600160a060020a0316331461062f57600080fd5b604080517f70a082310000000000000000000000000000000000000000000000000000000081523060048201529051600160a060020a038416916370a082319160248083019260209291908290030181600087803b15801561069057600080fd5b505af11580156106a4573d6000803e3d6000fd5b505050506040513d60208110156106ba57600080fd5b50516000549091506106df90600160a060020a0384811691168363ffffffff610bc116565b5050565b600a6020526000908152604090205481565b60008054600160a060020a0316331461070d57600080fd5b5060008054604080517ff2fde38b000000000000000000000000000000000000000000000000000000008152600160a060020a039283166004820152905184939284169263f2fde38b926024808201939182900301818387803b15801561077357600080fd5b505af1158015610787573d6000803e3d6000fd5b505050505050565b60035481565b60075481565b60045481565b60086020526000908152604090205481565b600c5481565b6107c281610c74565b50565b60065481565b600754600454101590565b600d5481565b600254600160a060020a031681565b60005b81518163ffffffff1610156106df57610823828263ffffffff1681518110151561081457fe5b90602001906020020151610c74565b6001016107ee565b60096020526000908152604090205481565b600054600160a060020a0316331461085457600080fd5b60008054604051600160a060020a03909116917ff8df31144d9c2f0f6b59d69b8b98abd5459d07f2742c4df920b25aae33c6482091a26000805473ffffffffffffffffffffffffffffffffffffffff19169055565b600160a060020a031660009081526009602052604090205490565b6108cd33610c74565b565b600054600160a060020a031681565b60008054600160a060020a031633146108f657600080fd5b5060005b8281101561093e57816009600086868581811061091357fe5b60209081029290920135600160a060020a0316835250810191909152604001600020556001016108fa565b50505050565b60055481565b600160a060020a031660009081526008602052604090205490565b600154600b54604080517fdd62ed3e000000000000000000000000000000000000000000000000000000008152600160a060020a0392831660048201523060248201529051600093929092169163dd62ed3e9160448082019260209290919082900301818787803b1580156109d957600080fd5b505af11580156109ed573d6000803e3d6000fd5b505050506040513d6020811015610a0357600080fd5b5051905090565b600b54600160a060020a031681565b600080fd5b600054600160a060020a03163314610a3557600080fd5b600160a060020a03909116600090815260096020526040902055565b6000610a5b61060f565b80610a695750610a696107cb565b905090565b600054600160a060020a03163314610a8557600080fd5b6107c281610ced565b600154600160a060020a031681565b610aa78282610d6a565b600160a060020a038216600090815260096020908152604080832054600890925290912054610adc908363ffffffff610b0416565b11156106df57600080fd5b6000610afe60035483610d8a90919063ffffffff16565b92915050565b81810182811015610afe57fe5b610b1b8282610db3565b600d54610b2e908263ffffffff610b0416565b600d555050565b610b3f82826106df565b600160a060020a038216600090815260086020526040902054610b68908263ffffffff610b0416565b600160a060020a0390921660009081526008602052604090209190915550565b600254604051600160a060020a03909116903480156108fc02916000818181858888f193505050501580156107c2573d6000803e3d6000fd5b82600160a060020a031663a9059cbb83836040518363ffffffff167c01000000000000000000000000000000000000000000000000000000000281526004018083600160a060020a0316600160a060020a0316815260200182815260200192505050602060405180830381600087803b158015610c3d57600080fd5b505af1158015610c51573d6000803e3d6000fd5b505050506040513d6020811015610c6757600080fd5b5051151561060457600080fd5b600c544211610ce457604080517f08c379a000000000000000000000000000000000000000000000000000000000815260206004820152601560248201527f5769746864726177616c73206e6f74206f70656e2e0000000000000000000000604482015290519081900360640190fd5b6107c281610dfc565b600160a060020a0381161515610d0257600080fd5b60008054604051600160a060020a03808516939216917f8be0079c531659141344cd1fd0a4f28419497f9722a3daafe3b4186f6b6457e091a36000805473ffffffffffffffffffffffffffffffffffffffff1916600160a060020a0392909216919091179055565b610d748282610f1e565b600754600454610adc908363ffffffff610b0416565b6000821515610d9b57506000610afe565b50818102818382811515610dab57fe5b0414610afe57fe5b600160a060020a0382166000908152600a6020526040902054610ddc908263ffffffff610b0416565b600160a060020a039092166000908152600a602052604090209190915550565b6000610e0661060f565b1515610e7357604080517f08c379a000000000000000000000000000000000000000000000000000000000815260206004820152601560248201527f43726f776473616c65206e6f7420636c6f7365642e0000000000000000000000604482015290519081900360640190fd5b50600160a060020a0381166000908152600a6020526040812054908111610efb57604080517f08c379a000000000000000000000000000000000000000000000000000000000815260206004820152601d60248201527f42656e656669636961727920686173207a65726f2062616c616e63652e000000604482015290519081900360640190fd5b600160a060020a0382166000908152600a60205260408120556106df8282610f47565b6005544210158015610f3257506006544211155b1515610f3d57600080fd5b6106df8282610f6b565b610f518282610f8c565b600e54610f64908263ffffffff610b0416565b600e555050565b600160a060020a0382161515610f8057600080fd5b8015156106df57600080fd5b600b546001546106df91600160a060020a039182169116848463ffffffff610fb016565b604080517f23b872dd000000000000000000000000000000000000000000000000000000008152600160a060020a0385811660048301528481166024830152604482018490529151918616916323b872dd916064808201926020929091908290030181600087803b15801561102457600080fd5b505af1158015611038573d6000803e3d6000fd5b505050506040513d602081101561104e57600080fd5b5051151561093e57600080fd00a165627a7a7230582022af614e1c7d8639a7cae154729baf81dd8986a4300f36b90d5f1a2868033d260029",
  "source": "pragma solidity 0.4.24;\n\nimport \"openzeppelin-solidity/contracts/token/ERC20/ERC20.sol\";\nimport \"openzeppelin-solidity/contracts/ownership/HasNoTokens.sol\";\nimport \"openzeppelin-solidity/contracts/ownership/HasNoContracts.sol\";\nimport \"openzeppelin-solidity/contracts/crowdsale/validation/IndividuallyCappedCrowdsale.sol\";\nimport \"openzeppelin-solidity/contracts/crowdsale/validation/CappedCrowdsale.sol\";\nimport \"openzeppelin-solidity/contracts/crowdsale/validation/TimedCrowdsale.sol\";\nimport \"openzeppelin-solidity/contracts/crowdsale/emission/AllowanceCrowdsale.sol\";\nimport \"./crowdsale/distribution/PostDeliveryCrowdsale.sol\";\n\n\n/**\n * @title TokenCrowdsale\n * @dev This is a ERC20 token crowdsale that will sell tokens util\n * the cap is reached, time expired or the allowance is spent.\n */\n// solium-disable-next-line\ncontract TokenCrowdsale\n  is\n    HasNoTokens,\n    HasNoContracts,\n    TimedCrowdsale,\n    CappedCrowdsale,\n    IndividuallyCappedCrowdsale,\n    PostDeliveryCrowdsale,\n    AllowanceCrowdsale\n{\n\n  // When withdrawals open\n  uint256 public withdrawTime;\n\n  // Amount of tokens sold\n  uint256 public tokensSold;\n\n  // Amount of tokens delivered\n  uint256 public tokensDelivered;\n\n  constructor(\n    uint256 _rate,\n    address _wallet,\n    ERC20 _token,\n    address _tokenWallet,\n    uint256 _cap,\n    uint256 _openingTime,\n    uint256 _closingTime,\n    uint256 _withdrawTime\n  )\n    public\n    Crowdsale(_rate, _wallet, _token)\n    TimedCrowdsale(_openingTime, _closingTime)\n    CappedCrowdsale(_cap)\n    AllowanceCrowdsale(_tokenWallet)\n  {\n    require(_withdrawTime >= _closingTime, \"Withdrawals should open after crowdsale closes.\");\n    withdrawTime = _withdrawTime;\n  }\n\n  /**\n   * @dev Checks whether the period in which the crowdsale is open\n   * has already elapsed or cap was reached.\n   * @return Whether crowdsale has ended\n   */\n  function hasEnded() public view returns (bool) {\n    return hasClosed() || capReached();\n  }\n\n  /**\n   * @dev Withdraw tokens only after crowdsale ends.\n   * @param _beneficiary Token purchaser\n   */\n  function withdrawTokens(address _beneficiary) public {\n    _withdrawTokens(_beneficiary);\n  }\n\n  /**\n   * @dev Withdraw tokens only after crowdsale ends.\n   * @param _beneficiaries List of token purchasers\n   */\n  function withdrawTokens(address[] _beneficiaries) public {\n    for (uint32 i = 0; i < _beneficiaries.length; i ++) {\n      _withdrawTokens(_beneficiaries[i]);\n    }\n  }\n\n  /**\n   * @dev We use this function to store the total amount of tokens sold\n   * @param _beneficiary Token purchaser\n   * @param _tokenAmount Amount of tokens purchased\n   */\n  function _processPurchase(\n    address _beneficiary,\n    uint256 _tokenAmount\n  )\n    internal\n  {\n    super._processPurchase(_beneficiary, _tokenAmount);\n    tokensSold = tokensSold.add(_tokenAmount);\n  }\n\n  /**\n   * @dev We use this function to store the total amount of tokens delivered\n   * @param _beneficiary Address performing the token purchase\n   * @param _tokenAmount Number of tokens to be emitted\n   */\n  function _deliverTokens(\n    address _beneficiary,\n    uint256 _tokenAmount\n  )\n    internal\n  {\n    super._deliverTokens(_beneficiary, _tokenAmount);\n    tokensDelivered = tokensDelivered.add(_tokenAmount);\n  }\n\n  /**\n   * @dev Withdraw tokens only after crowdsale ends.\n   * @param _beneficiary Token purchaser\n   */\n  function _withdrawTokens(address _beneficiary) internal {\n    // solium-disable-next-line security/no-block-members\n    require(block.timestamp > withdrawTime, \"Withdrawals not open.\");\n    super._withdrawTokens(_beneficiary);\n  }\n\n}\n",
  "sourcePath": "/Users/krebernisak/Documents/workspace/work/runningbeta/weinorth/tolar/contracts/TokenCrowdsale.sol",
  "compiler": {
    "name": "solc",
    "version": "0.4.24+commit.e67f0147.Emscripten.clang"
  },
  "schemaVersion": "2.0.1",
  "updatedAt": "2018-09-12T13:47:04.826Z"
}