{
  "contractName": "TolarToken",
  "abi": [
    {
      "constant": true,
      "inputs": [],
      "name": "name",
      "outputs": [
        {
          "name": "",
          "type": "string"
        }
      ],
      "payable": false,
      "stateMutability": "view",
      "type": "function"
    },
    {
      "constant": false,
      "inputs": [
        {
          "name": "_spender",
          "type": "address"
        },
        {
          "name": "_value",
          "type": "uint256"
        }
      ],
      "name": "approve",
      "outputs": [
        {
          "name": "",
          "type": "bool"
        }
      ],
      "payable": false,
      "stateMutability": "nonpayable",
      "type": "function"
    },
    {
      "constant": false,
      "inputs": [
        {
          "name": "_token",
          "type": "address"
        }
      ],
      "name": "reclaimToken",
      "outputs": [],
      "payable": false,
      "stateMutability": "nonpayable",
      "type": "function"
    },
    {
      "constant": true,
      "inputs": [],
      "name": "totalSupply",
      "outputs": [
        {
          "name": "",
          "type": "uint256"
        }
      ],
      "payable": false,
      "stateMutability": "view",
      "type": "function"
    },
    {
      "constant": false,
      "inputs": [
        {
          "name": "_from",
          "type": "address"
        },
        {
          "name": "_to",
          "type": "address"
        },
        {
          "name": "_value",
          "type": "uint256"
        }
      ],
      "name": "transferFrom",
      "outputs": [
        {
          "name": "",
          "type": "bool"
        }
      ],
      "payable": false,
      "stateMutability": "nonpayable",
      "type": "function"
    },
    {
      "constant": false,
      "inputs": [
        {
          "name": "_contractAddr",
          "type": "address"
        }
      ],
      "name": "reclaimContract",
      "outputs": [],
      "payable": false,
      "stateMutability": "nonpayable",
      "type": "function"
    },
    {
      "constant": true,
      "inputs": [],
      "name": "DECIMALS",
      "outputs": [
        {
          "name": "",
          "type": "uint8"
        }
      ],
      "payable": false,
      "stateMutability": "view",
      "type": "function"
    },
    {
      "constant": true,
      "inputs": [],
      "name": "INITIAL_SUPPLY",
      "outputs": [
        {
          "name": "",
          "type": "uint256"
        }
      ],
      "payable": false,
      "stateMutability": "view",
      "type": "function"
    },
    {
      "constant": true,
      "inputs": [],
      "name": "decimals",
      "outputs": [
        {
          "name": "",
          "type": "uint8"
        }
      ],
      "payable": false,
      "stateMutability": "view",
      "type": "function"
    },
    {
      "constant": false,
      "inputs": [
        {
          "name": "_value",
          "type": "uint256"
        }
      ],
      "name": "burn",
      "outputs": [],
      "payable": false,
      "stateMutability": "nonpayable",
      "type": "function"
    },
    {
      "constant": false,
      "inputs": [],
      "name": "finalize",
      "outputs": [],
      "payable": false,
      "stateMutability": "nonpayable",
      "type": "function"
    },
    {
      "constant": false,
      "inputs": [
        {
          "name": "_spender",
          "type": "address"
        },
        {
          "name": "_subtractedValue",
          "type": "uint256"
        }
      ],
      "name": "decreaseApproval",
      "outputs": [
        {
          "name": "",
          "type": "bool"
        }
      ],
      "payable": false,
      "stateMutability": "nonpayable",
      "type": "function"
    },
    {
      "constant": true,
      "inputs": [
        {
          "name": "_owner",
          "type": "address"
        }
      ],
      "name": "balanceOf",
      "outputs": [
        {
          "name": "",
          "type": "uint256"
        }
      ],
      "payable": false,
      "stateMutability": "view",
      "type": "function"
    },
    {
      "constant": false,
      "inputs": [],
      "name": "renounceOwnership",
      "outputs": [],
      "payable": false,
      "stateMutability": "nonpayable",
      "type": "function"
    },
    {
      "constant": false,
      "inputs": [
        {
          "name": "_from",
          "type": "address"
        },
        {
          "name": "_value",
          "type": "uint256"
        }
      ],
      "name": "burnFrom",
      "outputs": [],
      "payable": false,
      "stateMutability": "nonpayable",
      "type": "function"
    },
    {
      "constant": true,
      "inputs": [],
      "name": "isFinalized",
      "outputs": [
        {
          "name": "",
          "type": "bool"
        }
      ],
      "payable": false,
      "stateMutability": "view",
      "type": "function"
    },
    {
      "constant": true,
      "inputs": [],
      "name": "owner",
      "outputs": [
        {
          "name": "",
          "type": "address"
        }
      ],
      "payable": false,
      "stateMutability": "view",
      "type": "function"
    },
    {
      "constant": true,
      "inputs": [],
      "name": "symbol",
      "outputs": [
        {
          "name": "",
          "type": "string"
        }
      ],
      "payable": false,
      "stateMutability": "view",
      "type": "function"
    },
    {
      "constant": false,
      "inputs": [],
      "name": "reclaimEther",
      "outputs": [],
      "payable": false,
      "stateMutability": "nonpayable",
      "type": "function"
    },
    {
      "constant": true,
      "inputs": [],
      "name": "NAME",
      "outputs": [
        {
          "name": "",
          "type": "string"
        }
      ],
      "payable": false,
      "stateMutability": "view",
      "type": "function"
    },
    {
      "constant": false,
      "inputs": [
        {
          "name": "_to",
          "type": "address"
        },
        {
          "name": "_value",
          "type": "uint256"
        }
      ],
      "name": "transfer",
      "outputs": [
        {
          "name": "",
          "type": "bool"
        }
      ],
      "payable": false,
      "stateMutability": "nonpayable",
      "type": "function"
    },
    {
      "constant": true,
      "inputs": [
        {
          "name": "_from",
          "type": "address"
        },
        {
          "name": "_value",
          "type": "uint256"
        },
        {
          "name": "_data",
          "type": "bytes"
        }
      ],
      "name": "tokenFallback",
      "outputs": [],
      "payable": false,
      "stateMutability": "pure",
      "type": "function"
    },
    {
      "constant": false,
      "inputs": [
        {
          "name": "_spender",
          "type": "address"
        },
        {
          "name": "_addedValue",
          "type": "uint256"
        }
      ],
      "name": "increaseApproval",
      "outputs": [
        {
          "name": "",
          "type": "bool"
        }
      ],
      "payable": false,
      "stateMutability": "nonpayable",
      "type": "function"
    },
    {
      "constant": true,
      "inputs": [
        {
          "name": "_owner",
          "type": "address"
        },
        {
          "name": "_spender",
          "type": "address"
        }
      ],
      "name": "allowance",
      "outputs": [
        {
          "name": "",
          "type": "uint256"
        }
      ],
      "payable": false,
      "stateMutability": "view",
      "type": "function"
    },
    {
      "constant": false,
      "inputs": [
        {
          "name": "_newOwner",
          "type": "address"
        }
      ],
      "name": "transferOwnership",
      "outputs": [],
      "payable": false,
      "stateMutability": "nonpayable",
      "type": "function"
    },
    {
      "constant": true,
      "inputs": [],
      "name": "SYMBOL",
      "outputs": [
        {
          "name": "",
          "type": "string"
        }
      ],
      "payable": false,
      "stateMutability": "view",
      "type": "function"
    },
    {
      "inputs": [],
      "payable": false,
      "stateMutability": "nonpayable",
      "type": "constructor"
    },
    {
      "payable": false,
      "stateMutability": "nonpayable",
      "type": "fallback"
    },
    {
      "anonymous": false,
      "inputs": [
        {
          "indexed": true,
          "name": "burner",
          "type": "address"
        },
        {
          "indexed": false,
          "name": "value",
          "type": "uint256"
        }
      ],
      "name": "Burn",
      "type": "event"
    },
    {
      "anonymous": false,
      "inputs": [
        {
          "indexed": true,
          "name": "owner",
          "type": "address"
        },
        {
          "indexed": true,
          "name": "spender",
          "type": "address"
        },
        {
          "indexed": false,
          "name": "value",
          "type": "uint256"
        }
      ],
      "name": "Approval",
      "type": "event"
    },
    {
      "anonymous": false,
      "inputs": [
        {
          "indexed": true,
          "name": "from",
          "type": "address"
        },
        {
          "indexed": true,
          "name": "to",
          "type": "address"
        },
        {
          "indexed": false,
          "name": "value",
          "type": "uint256"
        }
      ],
      "name": "Transfer",
      "type": "event"
    },
    {
      "anonymous": false,
      "inputs": [],
      "name": "Finalized",
      "type": "event"
    },
    {
      "anonymous": false,
      "inputs": [
        {
          "indexed": true,
          "name": "previousOwner",
          "type": "address"
        }
      ],
      "name": "OwnershipRenounced",
      "type": "event"
    },
    {
      "anonymous": false,
      "inputs": [
        {
          "indexed": true,
          "name": "previousOwner",
          "type": "address"
        },
        {
          "indexed": true,
          "name": "newOwner",
          "type": "address"
        }
      ],
      "name": "OwnershipTransferred",
      "type": "event"
    }
  ],
  "bytecode": "0x60806040526000805460a060020a60ff02191690553480156200002157600080fd5b50604080518082018252600b81527f546f6c617220546f6b656e0000000000000000000000000000000000000000006020808301919091528251808401909352600383527f544f4c00000000000000000000000000000000000000000000000000000000009083015260008054600160a060020a031916331790559060123415620000ab57600080fd5b8251620000c09060019060208601906200014e565b508151620000d69060029060208501906200014e565b506003805460ff191660ff9290921691909117905550506b033b2e3c9fd0803ce80000006005819055336000818152600460209081526040808320859055805194855251929391927fddf252ad1be2c89b69c2b068fc378daa952ba7f163c4a11628f55a4df523b3ef9281900390910190a3620001f3565b828054600181600116156101000203166002900490600052602060002090601f016020900481019282601f106200019157805160ff1916838001178555620001c1565b82800160010185558215620001c1579182015b82811115620001c1578251825591602001919060010190620001a4565b50620001cf929150620001d3565b5090565b620001f091905b80821115620001cf5760008155600101620001da565b90565b6113f980620002036000396000f3006080604052600436106101535763ffffffff7c010000000000000000000000000000000000000000000000000000000060003504166306fdde038114610162578063095ea7b3146101ec57806317ffc3201461022457806318160ddd1461024757806323b872dd1461026e5780632aed7f3f146102985780632e0f2625146102b95780632ff2e9dc146102e4578063313ce567146102f957806342966c681461030e5780634bb278f314610326578063661884631461033b57806370a082311461035f578063715018a61461038057806379cc6790146103955780638d4e4083146103b95780638da5cb5b146103ce57806395d89b41146103ff5780639f727c2714610414578063a3f4df7e14610429578063a9059cbb1461043e578063c0ee0b8a14610462578063d73dd62314610493578063dd62ed3e146104b7578063f2fde38b146104de578063f76f8d78146104ff575b34801561015f57600080fd5b50005b34801561016e57600080fd5b50610177610514565b6040805160208082528351818301528351919283929083019185019080838360005b838110156101b1578181015183820152602001610199565b50505050905090810190601f1680156101de5780820380516001836020036101000a031916815260200191505b509250505060405180910390f35b3480156101f857600080fd5b50610210600160a060020a03600435166024356105a1565b604080519115158252519081900360200190f35b34801561023057600080fd5b50610245600160a060020a0360043516610607565b005b34801561025357600080fd5b5061025c6106d3565b60408051918252519081900360200190f35b34801561027a57600080fd5b50610210600160a060020a03600435811690602435166044356106d9565b3480156102a457600080fd5b50610245600160a060020a036004351661078e565b3480156102c557600080fd5b506102ce610828565b6040805160ff9092168252519081900360200190f35b3480156102f057600080fd5b5061025c61082d565b34801561030557600080fd5b506102ce61083d565b34801561031a57600080fd5b50610245600435610846565b34801561033257600080fd5b50610245610853565b34801561034757600080fd5b50610210600160a060020a036004351660243561095c565b34801561036b57600080fd5b5061025c600160a060020a0360043516610a4b565b34801561038c57600080fd5b50610245610a66565b3480156103a157600080fd5b50610245600160a060020a0360043516602435610ad2565b3480156103c557600080fd5b50610210610b64565b3480156103da57600080fd5b506103e3610b85565b60408051600160a060020a039092168252519081900360200190f35b34801561040b57600080fd5b50610177610b94565b34801561042057600080fd5b50610245610bec565b34801561043557600080fd5b50610177610c3e565b34801561044a57600080fd5b50610210600160a060020a0360043516602435610c75565b34801561046e57600080fd5b5061024560048035600160a060020a0316906024803591604435918201910135610d28565b34801561049f57600080fd5b50610210600160a060020a0360043516602435610d2d565b3480156104c357600080fd5b5061025c600160a060020a0360043581169060243516610dc6565b3480156104ea57600080fd5b50610245600160a060020a0360043516610df1565b34801561050b57600080fd5b50610177610e11565b60018054604080516020600284861615610100026000190190941693909304601f810184900484028201840190925281815292918301828280156105995780601f1061056e57610100808354040283529160200191610599565b820191906000526020600020905b81548152906001019060200180831161057c57829003601f168201915b505050505081565b336000818152600660209081526040808320600160a060020a038716808552908352818420869055815186815291519394909390927f8c5be1e5ebec7d5bd14f71427d1e84f3dd0314c0f7b2291e5b200ac8c7c3b925928290030190a350600192915050565b60008054600160a060020a0316331461061f57600080fd5b604080517f70a082310000000000000000000000000000000000000000000000000000000081523060048201529051600160a060020a038416916370a082319160248083019260209291908290030181600087803b15801561068057600080fd5b505af1158015610694573d6000803e3d6000fd5b505050506040513d60208110156106aa57600080fd5b50516000549091506106cf90600160a060020a0384811691168363ffffffff610e4816565b5050565b60055490565b600082600160a060020a03811630141561077a57604080517f08c379a000000000000000000000000000000000000000000000000000000000815260206004820152603b60248201527f5472616e73666572696e6720746f6b656e7320746f207468697320636f6e747260448201527f6163742061646472657373206973206e6f7420616c6c6f7765642e0000000000606482015290519081900360840190fd5b610785858585610f00565b95945050505050565b60008054600160a060020a031633146107a657600080fd5b5060008054604080517ff2fde38b000000000000000000000000000000000000000000000000000000008152600160a060020a039283166004820152905184939284169263f2fde38b926024808201939182900301818387803b15801561080c57600080fd5b505af1158015610820573d6000803e3d6000fd5b505050505050565b601281565b6b033b2e3c9fd0803ce800000081565b60035460ff1681565b6108503382611077565b50565b600054600160a060020a0316331461086a57600080fd5b60005474010000000000000000000000000000000000000000900460ff16156108f457604080517f08c379a000000000000000000000000000000000000000000000000000000000815260206004820152601b60248201527f436f6e747261637420616c72656164792066696e616c697a65642e0000000000604482015290519081900360640190fd5b6108fc611147565b6040517f6823b073d48d6e3a7d385eeb601452d680e74bb46afe3255a7d778f3a9b1768190600090a16000805474ff0000000000000000000000000000000000000000191674010000000000000000000000000000000000000000179055565b336000908152600660209081526040808320600160a060020a03861684529091528120548083106109b057336000908152600660209081526040808320600160a060020a03881684529091528120556109e5565b6109c0818463ffffffff61114916565b336000908152600660209081526040808320600160a060020a03891684529091529020555b336000818152600660209081526040808320600160a060020a0389168085529083529281902054815190815290519293927f8c5be1e5ebec7d5bd14f71427d1e84f3dd0314c0f7b2291e5b200ac8c7c3b925929181900390910190a35060019392505050565b600160a060020a031660009081526004602052604090205490565b600054600160a060020a03163314610a7d57600080fd5b60008054604051600160a060020a03909116917ff8df31144d9c2f0f6b59d69b8b98abd5459d07f2742c4df920b25aae33c6482091a26000805473ffffffffffffffffffffffffffffffffffffffff19169055565b600160a060020a0382166000908152600660209081526040808320338452909152902054811115610b0257600080fd5b600160a060020a0382166000908152600660209081526040808320338452909152902054610b36908263ffffffff61114916565b600160a060020a03831660009081526006602090815260408083203384529091529020556106cf8282611077565b60005474010000000000000000000000000000000000000000900460ff1681565b600054600160a060020a031681565b6002805460408051602060018416156101000260001901909316849004601f810184900484028201840190925281815292918301828280156105995780601f1061056e57610100808354040283529160200191610599565b600054600160a060020a03163314610c0357600080fd5b60008054604051600160a060020a0390911691303180156108fc02929091818181858888f19350505050158015610850573d6000803e3d6000fd5b60408051808201909152600b81527f546f6c617220546f6b656e000000000000000000000000000000000000000000602082015281565b600082600160a060020a038116301415610d1657604080517f08c379a000000000000000000000000000000000000000000000000000000000815260206004820152603b60248201527f5472616e73666572696e6720746f6b656e7320746f207468697320636f6e747260448201527f6163742061646472657373206973206e6f7420616c6c6f7765642e0000000000606482015290519081900360840190fd5b610d20848461115b565b949350505050565b600080fd5b336000908152600660209081526040808320600160a060020a0386168452909152812054610d61908363ffffffff61123c16565b336000818152600660209081526040808320600160a060020a0389168085529083529281902085905580519485525191937f8c5be1e5ebec7d5bd14f71427d1e84f3dd0314c0f7b2291e5b200ac8c7c3b925929081900390910190a350600192915050565b600160a060020a03918216600090815260066020908152604080832093909416825291909152205490565b600054600160a060020a03163314610e0857600080fd5b6108508161124f565b60408051808201909152600381527f544f4c0000000000000000000000000000000000000000000000000000000000602082015281565b82600160a060020a031663a9059cbb83836040518363ffffffff167c01000000000000000000000000000000000000000000000000000000000281526004018083600160a060020a0316600160a060020a0316815260200182815260200192505050602060405180830381600087803b158015610ec457600080fd5b505af1158015610ed8573d6000803e3d6000fd5b505050506040513d6020811015610eee57600080fd5b50511515610efb57600080fd5b505050565b600160a060020a038316600090815260046020526040812054821115610f2557600080fd5b600160a060020a0384166000908152600660209081526040808320338452909152902054821115610f5557600080fd5b600160a060020a0383161515610f6a57600080fd5b600160a060020a038416600090815260046020526040902054610f93908363ffffffff61114916565b600160a060020a038086166000908152600460205260408082209390935590851681522054610fc8908363ffffffff61123c16565b600160a060020a03808516600090815260046020908152604080832094909455918716815260068252828120338252909152205461100c908363ffffffff61114916565b600160a060020a03808616600081815260066020908152604080832033845282529182902094909455805186815290519287169391927fddf252ad1be2c89b69c2b068fc378daa952ba7f163c4a11628f55a4df523b3ef929181900390910190a35060019392505050565b60005474010000000000000000000000000000000000000000900460ff16806110aa5750600054600160a060020a031633145b151561113d57604080517f08c379a000000000000000000000000000000000000000000000000000000000815260206004820152602b60248201527f436f6e7472616374206e6f742066696e616c697a6564206f722073656e64657260448201527f206e6f74206f776e65722e000000000000000000000000000000000000000000606482015290519081900360840190fd5b6106cf82826112cc565b565b60008282111561115557fe5b50900390565b3360009081526004602052604081205482111561117757600080fd5b600160a060020a038316151561118c57600080fd5b336000908152600460205260409020546111ac908363ffffffff61114916565b3360009081526004602052604080822092909255600160a060020a038516815220546111de908363ffffffff61123c16565b600160a060020a0384166000818152600460209081526040918290209390935580518581529051919233927fddf252ad1be2c89b69c2b068fc378daa952ba7f163c4a11628f55a4df523b3ef9281900390910190a350600192915050565b8181018281101561124957fe5b92915050565b600160a060020a038116151561126457600080fd5b60008054604051600160a060020a03808516939216917f8be0079c531659141344cd1fd0a4f28419497f9722a3daafe3b4186f6b6457e091a36000805473ffffffffffffffffffffffffffffffffffffffff1916600160a060020a0392909216919091179055565b600160a060020a0382166000908152600460205260409020548111156112f157600080fd5b600160a060020a03821660009081526004602052604090205461131a908263ffffffff61114916565b600160a060020a038316600090815260046020526040902055600554611346908263ffffffff61114916565b600555604080518281529051600160a060020a038416917fcc16f5dbb4873280815c1ee09dbd06736cffcc184412cf7a71a0fdb75d397ca5919081900360200190a2604080518281529051600091600160a060020a038516917fddf252ad1be2c89b69c2b068fc378daa952ba7f163c4a11628f55a4df523b3ef9181900360200190a350505600a165627a7a72305820979d7b2a70ed1bebaba81b8bab5fdc5f428d9070f95d6b50c88608fbd1575df40029",
  "source": "pragma solidity 0.4.24;\n\nimport \"openzeppelin-solidity/contracts/ownership/NoOwner.sol\";\nimport \"openzeppelin-solidity/contracts/token/ERC20/DetailedERC20.sol\";\nimport \"openzeppelin-solidity/contracts/token/ERC20/StandardBurnableToken.sol\";\nimport \"./lifecycle/Finalizable.sol\";\nimport \"./token/ERC20/SafeStandardToken.sol\";\n\n\n/**\n * @title TolarToken\n * @dev ERC20 Tolar Token (TOL)\n *\n * TOL Tokens are divisible by 1e18 (1 000 000 000 000 000 000) base.\n *\n * TOL are displayed using 18 decimal places of precision.\n *\n * 1 TOL is equivalent to:\n *   1 000 000 000 000 000 000 == 1 * 10**18 == 1e18\n *\n * 1 Billion TOL (total supply) is equivalent to:\n *   1000000000 * 10**18 == 1e27\n *\n * @notice All tokens are pre-assigned to the creator. Note they can later distribute these\n * tokens as they wish using `transfer` and other `StandardToken` functions.\n * This is a BurnableToken where users can burn tokens when the burning functionality is\n * enabled (contract is finalized) by the owner.\n */\ncontract TolarToken is NoOwner, Finalizable, DetailedERC20, SafeStandardToken, StandardBurnableToken {\n\n  string public constant NAME = \"Tolar Token\";\n  string public constant SYMBOL = \"TOL\";\n  uint8 public constant DECIMALS = 18;\n\n  uint256 public constant INITIAL_SUPPLY = 1000000000 * (10 ** uint256(DECIMALS));\n\n  /// @dev Throws if called before the contract is finalized.\n  modifier onlyFinalizedOrOwner() {\n    require(isFinalized || msg.sender == owner, \"Contract not finalized or sender not owner.\");\n    _;\n  }\n\n  /// @dev Constructor that gives msg.sender all of existing tokens.\n  constructor() public DetailedERC20(NAME, SYMBOL, DECIMALS) {\n    totalSupply_ = INITIAL_SUPPLY;\n    balances[msg.sender] = INITIAL_SUPPLY;\n    emit Transfer(address(0), msg.sender, INITIAL_SUPPLY);\n  }\n\n  /**\n   * @dev Overrides StandardToken._burn in order for burn and burnFrom to be disabled\n   * when the contract is paused.\n   */\n  function _burn(address _who, uint256 _value) internal onlyFinalizedOrOwner {\n    super._burn(_who, _value);\n  }\n\n}\n",
  "sourcePath": "/Users/krebernisak/Documents/workspace/work/runningbeta/weinorth/tolar/contracts/TolarToken.sol",
  "compiler": {
    "name": "solc",
    "version": "0.4.24+commit.e67f0147.Emscripten.clang"
  },
  "schemaVersion": "2.0.1",
  "updatedAt": "2018-09-10T10:03:22.873Z"
}